:100000000C945D000C9485000C9485000C94850084
:100010000C9485000C9485000C9485000C9485004C
:100020000C9485000C9485000C9485000C9485003C
:100030000C9485000C9485000C9485000C9485002C
:100040000C940F070C9485000C94DD060C94B706F5
:100050000C9485000C9485000C9485000C9485000C
:100060000C9459070C948500000000080002010060
:100070000003040700000000000000000000000072
:10008000250028002B0000000000240027002A0083
:10009000040404040404040402020202020203032E
:1000A0000303030301020408102040800102040836
:1000B0001020010204081020780811241FBECFEF81
:1000C000D8E0DEBFCDBF11E0A0E0B1E0E0EFF8E1A5
:1000D00002C005900D92A433B107D9F722E0A4E342
:1000E000B1E001C01D92A33BB207E1F710E0CDE5FE
:1000F000D0E004C02197FE010E94610CCC35D107ED
:10010000C9F70E94BB080C94760C0C94000008956B
:1001100008953F924F925F926F927F928F929F923B
:10012000AF92BF92CF92DF92EF92FF920F931F9305
:10013000CF93DF9300D000D000D0CDB7DEB7BC01A5
:10014000990F880B990B0E94120B4B015C0120E068
:1001500030E0A9010E946A0A312C14E087FF07C031
:10016000B7FAB094B7F8B0943324339413E020E096
:1001700030E040E05FE3C501B4010E94FE090E9447
:10018000E10A6B017C011E821D8281E090E0A0E00B
:10019000B0E089839A83AB83BC83E12FF0E0AD812B
:1001A000BE81AE17BF0794F4AAE0B0E029813A817E
:1001B0004B815C810E94560C69837A838B839C837C
:1001C0008D819E8101969E838D83E9CF412C512C98
:1001D00050E8652E5FE3752E1D8289819A81AB817F
:1001E000BC81C816D906EA06FB06F0F09D81915045
:1001F0009D8320E030E040E251E4C301B2010E945F
:100200006F0A2B013C01AC019B01C501B4010E94A6
:10021000C70B20E030E040E05FE30E94FE090E944F
:10022000E10A6B017C01D9CF20E030E040E85FE3D8
:10023000C301B2010E946A0A87FF2EC080E490E0E9
:100240009093A2028093A1029093A4028093A302B0
:100250001092A6021092A5029093A8028093A70282
:100260009093AA028093A90226960FB6F894DEBF57
:100270000FBECDBFDF91CF911F910F91FF90EF90F7
:10028000DF90CF90BF90AF909F908F907F906F90B6
:100290005F904F903F900895C114D104E104F104A0
:1002A000D9F48FE390E09093AA028093A9023110D1
:1002B0007BC093E09983F981F7FDD6CFF53044F404
:1002C000EF2FF0E0EE0FFF1FEF55FD4F1182108270
:1002D000E981E150E983EFCFB4E0B983B12C4AE082
:1002E000442E512C612C712CED81EE2319F09924B0
:1002F0009394EB11912CA980FA2DF150F9838F2E54
:1003000084E08A15C8F00A2D10E0000F111F0F5568
:100310001D4FC701B601A30192010E94340C605029
:100320007F4F979499249794DB018C91982A892D7B
:1003300090E0F80191838083F981F23071F4AA94FE
:10034000AA94A98284E0881540F0E82DF0E0EE0F31
:10035000FF1FEF55FD4F11821082C701B601A301A7
:1003600092010E94340C69017A01B394C114D10442
:10037000E104F10409F0B8CFAD81AB1508F0B4CFBA
:10038000332009F498CFE981AE2FA150A983E5303D
:1003900008F091CFF0E0EE0FFF1FEF55FD4F80E426
:1003A00090E09183808387CFB2E0B983E3E0F2CF1E
:1003B000AF92BF92CF92DF92EF92FF920F931F9373
:1003C000CF93DF936C017B018B01040F151FEB01B1
:1003D0005E01AE18BF08C017D10759F06991D60168
:1003E000ED91FC910190F081E02DC6010995892BDA
:1003F00079F7C501DF91CF911F910F91FF90EF9099
:10040000DF90CF90BF90AF900895FC01538D448D45
:10041000252F30E0842F90E0821B930B541710F0AF
:10042000CF96089501970895FC01918D828D9817BC
:1004300061F0A28DAE0FBF2FB11D5D968C91928D94
:100440009F5F9F73928F90E008958FEF9FEF0895C5
:10045000FC01918D828D981731F0828DE80FF11D8E
:10046000858D90E008958FEF9FEF0895FC01918DA9
:10047000228D892F90E0805C9F4F821B91098F73A2
:100480009927089581EF91E00E94360221E0892B9F
:1004900009F420E0822F089580E090E0892B29F074
:1004A0000E94420281110C9400000895FC01A48D69
:1004B000A80FB92FB11DA35ABF4F2C91848D90E086
:1004C00001968F739927848FA689B7892C93A08969
:1004D000B1898C91837080648C93938D848D9813F3
:1004E00006C00288F389E02D80818F7D8083089586
:1004F000EF92FF920F931F93CF93DF93EC0181E074
:10050000888F9B8D8C8D98131AC0E889F98980811A
:1005100085FF15C09FB7F894EE89FF896083E8894D
:10052000F98980818370806480839FBF81E090E03F
:10053000DF91CF911F910F91FF90EF900895F62ECC
:100540000B8D10E00F5F1F4F0F731127E02E8C8D66
:100550008E110CC00FB607FCFACFE889F9898081AB
:1005600085FFF5CFCE010E945602F1CFEB8DEC0F47
:10057000FD2FF11DE35AFF4FF0829FB7F8940B8FC8
:10058000EA89FB8980818062CFCFCF93DF93EC0132
:10059000888D8823B9F0AA89BB89E889F9898C916B
:1005A00085FD03C0808186FD0DC00FB607FCF7CF27
:1005B0008C9185FFF2CF808185FFEDCFCE010E9427
:1005C0005602E9CFDF91CF91089590E0FC01E85900
:1005D000FF4F2491FC01EC55FF4F3491FC01E05793
:1005E000FF4FE491EE23C9F0222339F0233001F1CB
:1005F000A8F4213019F1223029F1F0E0EE0FFF1FAD
:10060000E458FF4FA591B4918FB7F894EC91611124
:1006100026C030953E233C938FBF08952730A9F024
:100620002830C9F0243049F7809180008F7D03C0C5
:10063000809180008F7780938000DFCF84B58F77A3
:1006400084BDDBCF84B58F7DFBCF8091B0008F77E9
:100650008093B000D2CF8091B0008F7DF9CF3E2B38
:10066000DACF1092CC011092CB011092EE011092D1
:10067000ED011092CA0181E08093C9011092C4017A
:1006800061E082E10E94E50261E083E10E94E5020F
:10069000E9EBF0E080818E7F808380818D7F808395
:1006A00088E48093B80085E48093BC0087E890E0FC
:1006B0009093A3018093A20188E890E09093A10118
:1006C0008093A00108953FB7F89480919C01909188
:1006D0009D01A0919E01B0919F0126B5A89B05C0E8
:1006E0002F3F19F00196A11DB11D3FBFBA2FA92FB1
:1006F000982F8827BC01CD01620F711D811D911DAE
:1007000042E0660F771F881F991F4A95D1F7089519
:100710008F929F92AF92BF92CF92DF92EF92FF9211
:100720004B015C010E9463036B017C010E94630327
:100730006C197D098E099F09683E734081059105FA
:10074000A8F321E0821A9108A108B10888EEC80E2A
:1007500083E0D81EE11CF11C81149104A104B104B2
:1007600029F7FF90EF90DF90CF90BF90AF909F90D0
:100770008F900895DC01ED91FC910190F081E02DC6
:100780000994DC01ED91FC910190F081E02D099438
:1007900085ED8093BC008091BC0084FDFCCF10925D
:1007A000CA01089520917401260F3327331F213287
:1007B0003105ECF42091CA01FC0190E080E0243086
:1007C00069F082E00895A09174012191AC014C5A26
:1007D0005E4FA40FB52FB11D2C930196861798F389
:1007E00080917401680F6093740180E0089581E046
:1007F00008950895E091CC018091CB01E81730F481
:10080000F0E0E353FE4F808190E008958FEF9FEF7B
:1008100008959091CC018091CB012FEF3FEF981775
:1008200048F4E92FF0E0E353FE4F208130E09F5F72
:100830009093CC01C90108958091CB019091CC0196
:10084000891B990B0895CF92DF92EF92FF920F933D
:100850001F93CF93DF937C01CB018A012091F0019C
:10086000222389F0EB016B01C40ED51ECC15DD05EA
:1008700069F06991D701ED91FC910190F081E02D33
:10088000C7010995F3CF642F0E94D203C801DF91FD
:10089000CF911F910F91FF90EF90DF90CF9008952F
:1008A000CF93DF931F92CDB7DEB769832091F0011C
:1008B0002223F9F02091ED01203258F021E030E0C0
:1008C000FC013383228390E080E00F90DF91CF9191
:1008D00008958091EE01E82FF0E0EC5CFE4F9981E5
:1008E00090838F5F8093EE018093ED0181E090E033
:1008F000ECCF61E0CE0101960E94D203F7CF2091A8
:10090000ED0181E0213208F044C08091CA018111DB
:10091000FCCF8091EF0192E09093CA0191E0909317
:10092000C9019FEF9093C8011092C7012093C6019F
:10093000A4E3B1E0E4EAF1E090E0291331C01092C1
:10094000C5019091C501880F892B8093C5018091C5
:10095000C401813049F51092C4018091C501809392
:10096000BB008091BC0083FDF8CF85EC8093BC0078
:100970008091CA018230E1F38091C8018F3FB1F0CC
:100980008091C8018032A1F08091C801803391F03C
:1009900084E01092EE011092ED011092F0010895A2
:1009A0003D9131939F5FC9CF85EEE0CF80E0F1CFDD
:1009B00082E0EFCF83E0EDCF1F93CF93DF93162F2D
:1009C000CAE9D2E0A981BA81988121E02093F0019F
:1009D0009093EF011092EE011092ED01ED91FC91D8
:1009E00011970190F081E02D682FCD010995898143
:1009F0009A81DC01ED91FC910190F081E02D612F55
:100A0000099589819A81DF91CF911F910C947F0480
:100A1000CF93DF938091B10291E09093F0018093A6
:100A2000EF011092EE011092ED0160E08EE892E08D
:100A30000E945004C1EAD2E06991799177278EE84B
:100A400092E00E94C103FE013297618170E08EE85E
:100A500092E00E94C10382E0C13BD80769F78EE8AB
:100A600092E0DF91CF910C947F0490E080E00895B4
:100A7000A0919B02B0919C0290919A0221E0209358
:100A8000F0019093EF011092EE011092ED01ED91C3
:100A9000FC9111970190F081E02D682FCD0109950F
:100AA00080919B0290919C020E947F0480919A0207
:100AB0009091CA019111FCCF91E09093CA0190935B
:100AC000C9012FEF2093C8011092C7011092C601EF
:100AD0009093C5019091C501880F892B8093C50122
:100AE0008091C401813079F51092C4018091C501D3
:100AF0008093BB008091BC0083FDF8CF85EC809390
:100B0000BC008091CA018130E1F38091C70191E07E
:100B1000811102C09091C701A4EAB1E0EDECF1E0CF
:100B200080E0891312C01092CC018093CB01809198
:100B30009B0290919C02DC01ED91FC910284F38573
:100B4000E02D0995089585EEDACF2D9121938F5FE1
:100B5000E8CF8F929F92AF92BF92CF92DF92EF92A7
:100B6000FF92CF936B017C0120E030E040E85FE32F
:100B70000E946A0A87FD7AC020E030EC4AE555E41D
:100B8000C701B6010E94C20B18163CF4C12C30EC10
:100B9000D32E3AE5E32E35E4F32E60919D02709159
:100BA0009E0280919F029091A0020E94100B4B0127
:100BB0005C0120E030E040E855E4C701B6010E9446
:100BC000C70B9B01AC01C501B4010E946F0A20E074
:100BD00030E040E05FE30E94FE0920E030E040E8C2
:100BE0005FE30E94FD096B017C0120E030E040E4FE
:100BF00050E40E946A0A87FD40C020E030E04FE7E1
:100C000053E4C701B6010E94C20B181634F4C12C7C
:100C1000D12C9FE7E92E93E4F92E80E00E9438055D
:100C2000C82F682F6F76606180E00E94DC04C701E6
:100C3000B6010E94E10A8EEF0E94DC046C2F80E076
:100C40000E94DC0465E070E080E090E00E94880390
:100C50006C2F606A80E0CF91FF90EF90DF90CF9093
:100C6000BF90AF909F908F900C94DC04C12CD12C3E
:100C700020E8E22E2FE3F22E90CFC12CD12C80E47D
:100C8000E82EFE2CCACF8F929F92AF92BF92CF9246
:100C9000DF92EF92FF920F931F93CF93DF93BC01EC
:100CA00090E080E00E94100B6B017C018EEF0E94AF
:100CB0003805682F70E06F5F7F4F90E080E00E9402
:100CC000100B20E034E244E759E40E94C70B4B01CB
:100CD0005C01CAE9D2E06B817C818D819E810E949A
:100CE000100B9B01AC01C501B4010E946F0A9B016E
:100CF000AC01C701B6010E946F0A0E94E10A8B0194
:100D000089819A81288131E03093F0012093EF01AD
:100D10001092EE011092ED0166E070E00E94BA03BD
:100D200070E060E089819A810E94C10370E060E018
:100D300089819A810E94C103B80189819A810E94A8
:100D4000C103612F70E089819A810E94C10389816A
:100D50009A81DF91CF911F910F91FF90EF90DF90DB
:100D6000CF90BF90AF909F908F900C947F041F9274
:100D70000F920FB60F9211242F933F934F935F93CF
:100D80006F937F938F939F93AF93BF93EF93FF9353
:100D900081EF91E00E945602FF91EF91BF91AF91D8
:100DA0009F918F917F916F915F914F913F912F9183
:100DB0000F900FBE0F901F9018951F920F920FB6B5
:100DC0000F9211242F938F939F93EF93FF93E091B2
:100DD0000102F09102028081E0910702F091080285
:100DE00082FD1BC0908180910A028F5F8F732091DA
:100DF0000B02821741F0E0910A02F0E0EF50FE4F43
:100E0000958F80930A02FF91EF919F918F912F917F
:100E10000F900FBE0F901F9018958081F4CF1F92F6
:100E20000F920FB60F9211242F933F938F939F939E
:100E3000AF93BF938091980190919901A0919A01ED
:100E4000B0919B013091970123E0230F2D3758F586
:100E50000196A11DB11D2093970180939801909355
:100E60009901A0939A01B0939B0180919C0190916C
:100E70009D01A0919E01B0919F010196A11DB11D00
:100E800080939C0190939D01A0939E01B0939F013C
:100E9000BF91AF919F918F913F912F910F900FBE76
:100EA0000F901F90189526E8230F0296A11DB11DE3
:100EB000D2CF1F920F920FB60F9211242F933F9310
:100EC0004F935F936F937F938F939F93AF93BF9352
:100ED000EF93FF938091B900887F803609F44AC070
:100EE000F0F5883209F4A7C018F5803109F49BC0E9
:100EF000B8F4882309F4F9C0883009F494C0FF914C
:100F0000EF91BF91AF919F918F917F916F915F9181
:100F10004F913F912F910F900FBE0F901F901895FA
:100F2000883109F488C0803251F78093C80114C019
:100F3000803409F49DC040F48033B9F38833F9F666
:100F40008093C80185ECB0C0803509F485C0883530
:100F500009F496C0883499F60E94C803D0CF883926
:100F600009F48CC038F5883729F050F4883611F030
:100F7000803729F683E08093CA011092960157C00A
:100F8000883809F47BC0803919F0803809F0B7CF70
:100F900080919601803208F071C0E091960181E065
:100FA0008E0F809396018091BB00F0E0EA58FE4FCF
:100FB00080833DC0803B39F0E0F4803A09F479C089
:100FC000883A09F09CCF84E08093CA0110927501A1
:100FD00010927401E091A201F091A3010995809112
:100FE000740181110FC081E080937401109254014B
:100FF00009C0803C09F4A6CF883C09F4A3CF883B04
:1010000009F07DCFE091750181E08E0F809375012D
:10101000F0E0EC5AFE4F80818093BB009091750107
:101020008091740129C08091C5018093BB0085EC3B
:101030008093BC0064CF9091C7018091C60198173E
:1010400058F5E091C70181E08E0F8093C701F0E071
:10105000EC55FE4F8081E9CFE091C70181E08E0F12
:101060008093C7018091BB00F0E0EC55FE4F808378
:101070009091C7018091C6019817C8F285E8D8CF32
:10108000E091C70181E08E0F8093C7018091BB0082
:10109000F0E0EC55FE4F80838091C90181115CCF57
:1010A00081E08093C40184EA8093BC001092CA015D
:1010B00026CF85EC8093BC001092CA0180919601E6
:1010C000803230F4E0919601F0E0EA58FE4F108251
:1010D0006091960170E0E091A001F091A10186E796
:1010E00091E00995109296010ACF1092C80134CF71
:1010F000E1EFF1E01382128288EE93E0A0E0B0E02D
:1011000084839583A683B78324E131E031832083F0
:1011100025EC30E03587248724EC30E037872687BC
:1011200020EC30E0318B208B21EC30E0338B228BB4
:1011300022EC30E0358B248B26EC30E0378B268B8D
:10114000118E128E138E148EEEE8F2E0138212824C
:1011500084839583A683B78386E291E0918380831D
:101160001092B202AAE9B2E080E48C931296FC934A
:10117000EE9311970895789484B5826084BD84B508
:10118000816084BD85B5826085BD85B5816085BD82
:1011900080916E00816080936E001092810080913A
:1011A00081008260809381008091810081608093C2
:1011B0008100809180008160809380008091B100E7
:1011C00084608093B1008091B00081608093B00012
:1011D00080917A00846080937A0080917A008260A6
:1011E00080937A0080917A00816080937A00809168
:1011F0007A00806880937A001092C100E091010229
:10120000F091020282E08083E091FD01F091FE0105
:101210001082E091FF01F09100028FEC8083109228
:101220000902E0910502F091060286E08083E091D8
:101230000302F0910402808180618083E0910302C7
:10124000F0910402808188608083E0910302F09134
:101250000402808180688083E0910302F09104029F
:1012600080818F7D808380E78093B1020E9431036B
:101270008091B102C1E0C093F0018093EF01109220
:10128000EE011092ED0161E270E08EE892E00E94C2
:10129000BA038EE892E00E947F048091B102C0936D
:1012A000F0018093EF011092EE011092ED0161E8E0
:1012B00070E08EE892E00E94BA038EE892E00E940D
:1012C0007F048091B102C093F0018093EF011092EE
:1012D000EE011092ED016FEE70E08EE892E00E9458
:1012E000BA038EE892E00E947F0490E080E00E94C2
:1012F00089000E9408050E94310360E880E00E9496
:10130000DC046AE070E080E090E00E94880360E026
:1013100070E08AE794E40E94A90580EC9CEFABE9B9
:10132000B1E080939D0290939E02A0939F02B093A0
:10133000A00260E070E080E792E40E94A905E1EB82
:10134000F0E02491EDE9F0E08491882399F090E0B9
:10135000880F991FFC01EA57FF4FA591B491FC013A
:10136000E458FF4F859194918FB7F894EC91E22B5C
:10137000EC938FBFC0E0D0E081EF91E00E94360295
:10138000892BC1F081EF91E00E9414028133D9F0E2
:10139000823331F1803371F48DE090E00E94890056
:1013A0000E94080561E08DE00E94E50284E195E07D
:1013B0000E944306209701F30E9442028823E1F233
:1013C0000E940000D9CF8FE090E00E9489000E9427
:1013D000080560E08DE00E94E5028CED95E0E8CF25
:1013E00081E190E00E9489000E94080561E08DE0A3
:1013F0000E94E50284EA96E0DBCF5058BB27AA277B
:101400000E94150A0C94880B0E947A0B38F00E94F7
:10141000810B20F039F49F3F19F426F40C94770BDC
:101420000EF4E095E7FB0C94710BE92F0E94990BE9
:1014300058F3BA17620773078407950720F079F409
:10144000A6F50C94BB0B0EF4E0950B2EBA2FA02D35
:101450000B01B90190010C01CA01A0011124FF2761
:10146000591B99F0593F50F4503E68F11A16F0405C
:10147000A22F232F342F4427585FF3CF469537955B
:101480002795A795F0405395C9F77EF41F16BA0B20
:10149000620B730B840BBAF09150A1F0FF0FBB1FCE
:1014A000661F771F881FC2F70EC0BA0F621F731F17
:1014B000841F48F4879577956795B795F7959E3F74
:1014C00008F0B0CF9395880F08F09927EE0F979505
:1014D000879508950E944D0B08F481E008950E94BD
:1014E000830A0C94880B0E94810B58F00E947A0B9F
:1014F00040F029F45F3F29F00C94710B51110C94CA
:10150000BC0B0C94770B0E94990B68F39923B1F3F1
:10151000552391F3951B550BBB27AA276217730719
:10152000840738F09F5F5F4F220F331F441FAA1FAD
:10153000A9F335D00E2E3AF0E0E832D09150504069
:10154000E695001CCAF72BD0FE2F29D0660F771F17
:10155000881FBB1F261737074807AB07B0E809F0FD
:10156000BB0B802DBF01FF2793585F4F3AF09E3F82
:10157000510578F00C94710B0C94BC0B5F3FE4F3B5
:10158000983ED4F3869577956795B795F7959F5FC5
:10159000C9F7880F911D9695879597F90895E1E011
:1015A000660F771F881FBB1F621773078407BA0770
:1015B00020F0621B730B840BBA0BEE1F88F7E095CB
:1015C00008950E94A10B88F09F5798F0B92F992792
:1015D000B751B0F0E1F0660F771F881F991F1AF01E
:1015E000BA95C9F714C0B13091F00E94BB0BB1E0BD
:1015F00008950C94BB0B672F782F8827B85F39F0BC
:10160000B93FCCF3869577956795B395D9F73EF4B6
:1016100090958095709561957F4F8F4F9F4F08955E
:10162000E89409C097FB3EF490958095709561957C
:101630007F4F8F4F9F4F9923A9F0F92F96E9BB2732
:101640009395F695879577956795B795F111F8CFAE
:10165000FAF4BB0F11F460FF1BC06F5F7F4F8F4F19
:101660009F4F16C0882311F096E911C0772321F00F
:101670009EE8872F762F05C0662371F096E8862FA7
:1016800070E060E02AF09A95660F771F881FDAF7FE
:10169000880F9695879597F90895990F0008550F2B
:1016A000AA0BE0E8FEEF16161706E807F907C0F0E8
:1016B00012161306E407F50798F0621B730B840BF0
:1016C000950B39F40A2661F0232B242B252B21F4CA
:1016D00008950A2609F4A140A6958FEF811D811D6A
:1016E000089597F99F6780E870E060E008959FEFA4
:1016F00080EC089500240A941616170618060906A9
:10170000089500240A941216130614060506089577
:10171000092E0394000C11F4882352F0BB0F40F4FF
:10172000BF2B11F460FF04C06F5F7F4F8F4F9F4F3F
:10173000089557FD9058440F551F59F05F3F71F0C1
:101740004795880F97FB991F61F09F3F79F0879528
:101750000895121613061406551FF2CF4695F1DFB1
:1017600008C0161617061806991FF1CF8695710541
:10177000610508940895E894BB2766277727CB0175
:1017800097F908950E944D0B08F48FEF08950E9479
:10179000DA0B0C94880B0E947A0B38F00E94810BB4
:1017A00020F0952311F00C94710B0C94770B1124FD
:1017B0000C94BC0B0E94990B70F3959FC1F3950F8D
:1017C00050E0551F629FF001729FBB27F00DB11DC5
:1017D000639FAA27F00DB11DAA1F649F6627B00D55
:1017E000A11D661F829F2227B00DA11D621F739F3E
:1017F000B00DA11D621F839FA00D611D221F749F4C
:101800003327A00D611D231F849F600D211D822F92
:10181000762F6A2F11249F5750409AF0F1F08823B9
:101820004AF0EE0FFF1FBB1F661F771F881F9150E6
:101830005040A9F79E3F510580F00C94710B0C9419
:10184000BC0B5F3FE4F3983ED4F38695779567959C
:10185000B795F795E7959F5FC1F7FE2B880F911D10
:101860009695879597F90895A1E21A2EAA1BBB1B9E
:10187000FD010DC0AA1FBB1FEE1FFF1FA217B3075C
:10188000E407F50720F0A21BB30BE40BF50B661F72
:10189000771F881F991F1A9469F760957095809536
:1018A00090959B01AC01BD01CF0108950E94670C8A
:1018B000A59F900DB49F900DA49F800D911D1124A4
:1018C0000895EE0FFF1F0590F491E02D0994A29F5B
:1018D000B001B39FC001A39F700D811D1124911D04
:1018E000B29F700D811D1124911D0895F894FFCFB2
:1018F0003F065B4F666D7D077F6F777C395E797140
:10190000000000007802D8010502C5023602140268
:10191000280200000000500423043505F9031C04CC
:041920000904FA03B9
:00000001FF
