:100000000C9458000C9480000C9480000C94800098
:100010000C9480000C9480000C9480000C94800060
:100020000C9480000C9480000C9480000C94800050
:100030000C9480000C9480000C9480000C94800040
:100040000C944F050C9480000C941D050C94F7043F
:100050000C9480000C9480000C9480000C94800020
:100060000C9499050C9480000000000025002800E5
:100070002B00040404040404040402020202020229
:10008000030303030303010204081020408001025C
:1000900004081020010204081020000000080002DB
:1000A0000100000304070000000000000000B80683
:1000B00011241FBECFEFD8E0DEBFCDBF11E0A0E01E
:1000C000B1E0E8E5F4E102C005900D92A432B10779
:1000D000D9F722E0A4E2B1E001C01D92A139B20734
:1000E000E1F710E0C8E5D0E004C02197FE010E94CE
:1000F000240AC735D107C9F70E94F9060C942A0AC9
:100100000C940000982F2091E00181E0213208F04A
:1001100043C08091BC018111FCCF8091DF0132E0AE
:100120003093BC019093BB019FEF9093BA01109262
:10013000B9012093B801AFEBB1E0E8E9F1E090E05C
:10014000291331C01092970190919701880F892B44
:100150008093970180919601813049F51092960124
:10016000809197018093BB008091BC0083FDF8CF04
:1001700085EC8093BC008091BC018230E1F38091DA
:10018000BA018F3FB1F08091BA018032A1F0809125
:10019000BA01803391F084E01092BE011092E00128
:1001A0001092BD0108953D9131939F5FC9CF85EEB7
:1001B000E0CF80E0F1CF82E0EFCF83E0EDCF1F937F
:1001C000CF93DF93162FCAE8D2E0A981BA81988134
:1001D00021E02093BD019093DF011092BE011092A7
:1001E000E001ED91FC9111970190F081E02D682FD5
:1001F000CD01099589819A81DC01ED91FC910190F5
:10020000F081E02D612F099581E0DF91CF911F9161
:100210000C94820090E0FC01E656FF4F2491FC0113
:10022000EA57FF4F3491FC01EE58FF4FE491EE2363
:10023000B1F0222339F02330E9F090F4213001F1BC
:10024000223011F1F0E0EE0FFF1FE859FF4FA591AA
:10025000B4918FB7F894EC913E2B3C938FBF0895E7
:100260002730A9F02830C9F0243061F78091800050
:100270008F7D03C0809180008F7780938000E2CFD4
:1002800084B58F7784BDDECF84B58F7DFBCF809121
:10029000B0008F778093B000D5CF8091B0008F7D74
:1002A000F9CF08950895AF92BF92CF92DF92EF9267
:1002B000FF920F931F93CF93DF936C017B018B0110
:1002C000040F151FEB015E01AE18BF08C017D10760
:1002D00059F06991D601ED91FC910190F081E02DEA
:1002E000C6010995892B79F7C501DF91CF911F913F
:1002F0000F91FF90EF90DF90CF90BF90AF90089557
:10030000FC01538D448D252F30E0842F90E0821B1B
:10031000930B541710F0CF96089501970895FC01A0
:10032000918D828D981761F0A28DAE0FBF2FB11DF8
:100330005D968C91928D9F5F9F73928F90E0089550
:100340008FEF9FEF0895FC01918D828D981731F00A
:10035000828DE80FF11D858D90E008958FEF9FEF5E
:100360000895FC01918D228D892F90E0805C9F4F34
:10037000821B91098F739927089581EE91E00E9465
:10038000B10121E0892B09F420E0822F089580E05B
:1003900090E0892B29F00E94BD0181110C9400008E
:1003A0000895FC01A48DA80FB92FB11DA35ABF4F0A
:1003B0002C91848D90E001968F739927848FA68964
:1003C000B7892C93A089B1898C91837080648C93B8
:1003D000938D848D981306C00288F389E02D808167
:1003E0008F7D80830895EF92FF920F931F93CF9399
:1003F000DF93EC0181E0888F9B8D8C8D98131AC060
:10040000E889F989808185FF15C09FB7F894EE8946
:10041000FF896083E889F9898081837080648083A3
:100420009FBF81E090E0DF91CF911F910F91FF90EE
:10043000EF900895F62E0B8D10E00F5F1F4F0F7396
:100440001127E02E8C8D8E110CC00FB607FCFACF51
:10045000E889F989808185FFF5CFCE010E94D1011D
:10046000F1CFEB8DEC0FFD2FF11DE35AFF4FF08222
:100470009FB7F8940B8FEA89FB8980818062CFCF88
:10048000CF93DF93EC01888D8823B9F0AA89BB89CB
:10049000E889F9898C9185FD03C0808186FD0DC0B6
:1004A0000FB607FCF7CF8C9185FFF2CF808185FFD7
:1004B000EDCFCE010E94D101E9CFDF91CF91089518
:1004C0003FB7F89480916C0190916D01A0916E01FD
:1004D000B0916F0126B5A89B05C02F3F19F001967A
:1004E000A11DB11D3FBFBA2FA92F982F8827BC018E
:1004F000CD01620F711D811D911D42E0660F771FB6
:10050000881F991F4A95D1F708958F929F92AF92B5
:10051000BF92CF92DF92EF92FF924B015C010E945B
:1005200060026B017C010E9460026C197D098E09DA
:100530009F09683E734081059105A8F321E0821A66
:100540009108A108B10888EEC80E83E0D81EE11C0E
:10055000F11C81149104A104B10429F7FF90EF90DC
:10056000DF90CF90BF90AF909F908F90089585EDD2
:100570008093BC008091BC0084FDFCCF1092BC0134
:10058000089520914401260F3327331F213231056E
:10059000ECF42091BC01FC0190E080E0243069F093
:1005A00082E00895A09144012191AC014C5D5E4F21
:1005B000A40FB52FB11D2C930196861798F3809147
:1005C0004401680F6093440180E0089581E008953C
:1005D0000895E091750180917401E81730F4F0E01E
:1005E000EA58FE4F808190E008958FEF9FEF0895C5
:1005F00090917501809174012FEF3FEF981748F4A7
:10060000E92FF0E0EA58FE4F208130E09F5F9093A1
:100610007501C90108958091740190917501891B3C
:10062000990B0895CF92DF92EF92FF920F931F9351
:10063000CF93DF937C01CB018A012091BD0122235E
:1006400089F0EB016B01C40ED51ECC15DD0569F0F8
:100650006991D701ED91FC910190F081E02DC701E6
:100660000995F3CF642F0E94C102C801DF91CF9199
:100670001F910F91FF90EF90DF90CF900895CF934F
:10068000DF931F92CDB7DEB769832091BD0122238E
:10069000F9F02091E001203258F021E030E0FC0137
:1006A0003383228390E080E00F90DF91CF91089513
:1006B0008091BE01E82FF0E0E154FE4F99819083D4
:1006C0008F5F8093BE018093E00181E090E0ECCFEA
:1006D00061E0CE0101960E94C102F7CFDC01ED91ED
:1006E000FC910190F081E02D099490E080E0089564
:1006F000A0918B02B0918C0290918A0221E020930C
:10070000BD019093DF011092BE011092E001ED91C6
:10071000FC9111970190F081E02D682FCD01099592
:1007200081E00E94820080918A029091BC01911127
:10073000FCCF91E09093BC019093BB012FEF2093ED
:10074000BA011092B9011092B8019093970190915B
:100750009701880F892B80939701809196018130B2
:1007600079F510929601809197018093BB0080915A
:10077000BC0083FDF8CF85EC8093BC008091BC0168
:100780008130E1F38091B90191E0811102C0909133
:10079000B901A8E9B1E0E6E7F1E080E0891312C011
:1007A000109275018093740180918B0290918C025C
:1007B000DC01ED91FC910284F385E02D099508950B
:1007C00085EEDACF2D9121938F5FE8CF8F929F92A4
:1007D000AF92BF92CF92DF92EF92FF920F931F934F
:1007E000CF93DF93BC0190E080E00E9400096B0191
:1007F0007C018EEF0E947803682F70E06F5F7F4F5F
:1008000090E080E00E94000920E034E244E759E4EF
:100810000E94B7094B015C01CAE8D2E06B817C8180
:100820008D819E810E9400099B01AC01C501B4012C
:100830000E945F089B01AC01C701B6010E945F08DE
:100840000E94D1088B0189819A81288131E03093FF
:10085000BD012093DF011092BE011092E001DC0186
:10086000ED91FC910190F081E02D66E0099570E03A
:1008700060E089819A810E946E0370E060E0898166
:100880009A810E946E03B80189819A810E946E0349
:10089000612F70E089819A810E946E0381E0DF916F
:1008A000CF911F910F91FF90EF90DF90CF90BF906D
:1008B000AF909F908F900C9482008F929F92AF92F6
:1008C000BF92CF92DF92EF92FF92CF936B017C01A8
:1008D00020E030E040E85FE30E945A0887FD7AC0DC
:1008E00020E030EC4AE555E4C701B6010E94B209A8
:1008F00018163CF4C12C30ECD32E3AE5E32E35E447
:10090000F32E60918D0270918E0280918F029091F2
:1009100090020E9400094B015C0120E030E040E8B9
:1009200055E4C701B6010E94B7099B01AC01C5019E
:10093000B4010E945F0820E030E040E05FE30E94E5
:10094000EE0720E030E040E85FE30E94ED076B0136
:100950007C0120E030E040E450E40E945A0887FD2A
:1009600040C020E030E04FE753E4C701B6010E94E9
:10097000B209181634F4C12CD12C9FE7E92E93E468
:10098000F92E80E00E947803C82F682F6F7660618F
:1009900080E00E94DF00C701B6010E94D1088EEFFF
:1009A0000E94DF006C2F80E00E94DF0065E070E0B5
:1009B00080E090E00E9485026C2F606A80E0CF9119
:1009C000FF90EF90DF90CF90BF90AF909F908F906F
:1009D0000C94DF00C12CD12C20E8E22E2FE3F22E64
:1009E00090CFC12CD12C80E4E82EFE2CCACF1F92D0
:1009F0000F920FB60F9211242F933F934F935F9353
:100A00006F937F938F939F93AF93BF93EF93FF93D6
:100A100081EE91E00E94D101FF91EF91BF91AF91E2
:100A20009F918F917F916F915F914F913F912F9106
:100A30000F900FBE0F901F9018951F920F920FB638
:100A40000F9211242F938F939F93EF93FF93E09135
:100A5000F101F091F2018081E091F701F091F8014C
:100A600082FD1BC090818091FA018F5F8F7320916E
:100A7000FB01821741F0E091FA01F0E0EF51FE4FE7
:100A8000958F8093FA01FF91EF919F918F912F9114
:100A90000F900FBE0F901F9018958081F4CF1F927A
:100AA0000F920FB60F9211242F933F938F939F9322
:100AB000AF93BF938091680190916901A0916A0101
:100AC000B0916B013091670123E0230F2D3758F56A
:100AD0000196A11DB11D2093670180936801909339
:100AE0006901A0936A01B0936B0180916C019091B0
:100AF0006D01A0916E01B0916F010196A11DB11D14
:100B000080936C0190936D01A0936E01B0936F017F
:100B1000BF91AF919F918F913F912F910F900FBEF9
:100B20000F901F90189526E8230F0296A11DB11D66
:100B3000D2CF1F920F920FB60F9211242F933F9393
:100B40004F935F936F937F938F939F93AF93BF93D5
:100B5000EF93FF938091B900887F803609F44AC0F3
:100B6000F0F5883209F4A7C018F5803109F49BC06C
:100B7000B8F4882309F4F9C0883009F494C0FF91CF
:100B8000EF91BF91AF919F918F917F916F915F9105
:100B90004F913F912F910F900FBE0F901F9018957E
:100BA000883109F488C0803251F78093BA0114C0AB
:100BB000803409F49DC040F48033B9F38833F9F6EA
:100BC0008093BA0185ECB0C0803509F485C08835C2
:100BD00009F496C0883499F60E94B702D0CF8839BC
:100BE00009F48CC038F5883729F050F4883611F0B4
:100BF000803729F683E08093BC011092660157C0CC
:100C0000883809F47BC0803919F0803809F0B7CFF3
:100C100080916601803208F071C0E091660181E048
:100C20008E0F809366018091BB00F0E0EA5BFE4F7F
:100C300080833DC0803B39F0E0F4803A09F479C00C
:100C4000883A09F09CCF84E08093BC011092450162
:100C500010924401E0917201F09173010995809125
:100C6000440181110FC081E080934401109224015E
:100C700009C0803C09F4A6CF883C09F4A3CF883B87
:100C800009F07DCFE091450181E08E0F8093450111
:100C9000F0E0EC5DFE4F80818093BB0090914501B8
:100CA0008091440129C0809197018093BB0085EC1D
:100CB0008093BC0064CF9091B9018091B8019817DE
:100CC00058F5E091B90181E08E0F8093B901F0E011
:100CD000E856FE4F8081E9CFE091B90181E08E0FA7
:100CE0008093B9018091BB00F0E0E856FE4F80830D
:100CF0009091B9018091B8019817C8F285E8D8CFD2
:100D0000E091B90181E08E0F8093B9018091BB0021
:100D1000F0E0E856FE4F80838091BB0181115CCFEB
:100D200081E08093960184EA8093BC001092BC011C
:100D300026CF85EC8093BC001092BC0180916601A7
:100D4000803230F4E0916601F0E0EA5BFE4F108201
:100D50006091660170E0E0917001F091710186E4AC
:100D600091E00995109266010ACF1092BA0134CF32
:100D7000E1EEF1E01382128288EE93E0A0E0B0E0B1
:100D800084839583A683B78324E031E03183208375
:100D900025EC30E03587248724EC30E03787268740
:100DA00020EC30E0318B208B21EC30E0338B228B38
:100DB00022EC30E0358B248B26EC30E0378B268B11
:100DC000118E128E138E148EEEE7F2E013821282D1
:100DD00084839583A683B78386E191E091838083A2
:100DE000AAE8B2E080E48C931296FC93EE931197FC
:100DF0000895789484B5826084BD84B5816084BD93
:100E000085B5826085BD85B5816085BD80916E00A8
:100E1000816080936E0010928100809181008260D9
:100E20008093810080918100816080938100809116
:100E300080008160809380008091B1008460809305
:100E4000B1008091B00081608093B00080917A0001
:100E5000846080937A0080917A00826080937A0027
:100E600080917A00816080937A0080917A00806816
:100E700080937A001092C100E091F101F091F201AB
:100E800082E08083E091ED01F091EE011082E0912B
:100E9000EF01F091F0018FEC80831092F901E09165
:100EA000F501F091F60186E08083E091F301F09185
:100EB000F401808180618083E091F301F091F4017D
:100EC000808188608083E091F301F091F40180815A
:100ED00080688083E091F301F091F40180818F7D3F
:100EE000808310927501109274011092BE011092CD
:100EF000E0011092BC0181E08093BB011092960149
:100F000082E10E940A0183E10E940A018091B900F6
:100F10008E7F8093B9008091B9008D7F8093B90056
:100F200088E48093B80085E48093BC0081E591E07B
:100F3000909373018093720182E591E09093710127
:100F40008093700160E880E00E94DF006AE070E05A
:100F500080E090E00E94850260E070E08AE794E41F
:100F60000E945D0480EC9CEFABE9B1E080938D02C0
:100F700090938E02A0938F02B093900260E070E095
:100F800080E792E40E945D048CED95E00E94E60308
:100F900060E777E180E090E00E948502C0E0D0E069
:100FA0008CE697E00E94E60368EB7BE080E090E04F
:100FB0000E9485028CE494E00E94E60368EB7BE0EB
:100FC00080E090E00E948502209751F30E94BD01CD
:100FD000882331F30E940000E3CF5058BB27AA2793
:100FE0000E9405080C9478090E946A0938F00E9452
:100FF000710920F039F49F3F19F426F40C94670925
:101000000EF4E095E7FB0C946109E92F0E94890931
:1010100058F3BA17620773078407950720F079F42D
:10102000A6F50C94AB090EF4E0950B2EBA2FA02D6B
:101030000B01B90190010C01CA01A0011124FF2785
:10104000591B99F0593F50F4503E68F11A16F04080
:10105000A22F232F342F4427585FF3CF469537957F
:101060002795A795F0405395C9F77EF41F16BA0B44
:10107000620B730B840BBAF09150A1F0FF0FBB1FF2
:10108000661F771F881FC2F70EC0BA0F621F731F3B
:10109000841F48F4879577956795B795F7959E3F98
:1010A00008F0B0CF9395880F08F09927EE0F979529
:1010B000879508950E943D0908F481E008950E94F3
:1010C00073080C9478090E94710958F00E946A090B
:1010D00040F029F45F3F29F00C94610951110C9400
:1010E000AC090C9467090E94890968F39923B1F34C
:1010F000552391F3951B550BBB27AA27621773073E
:10110000840738F09F5F5F4F220F331F441FAA1FD1
:10111000A9F335D00E2E3AF0E0E832D0915050408D
:10112000E695001CCAF72BD0FE2F29D0660F771F3B
:10113000881FBB1F261737074807AB07B0E809F021
:10114000BB0B802DBF01FF2793585F4F3AF09E3FA6
:10115000510578F00C9461090C94AC095F3FE4F3FD
:10116000983ED4F3869577956795B795F7959F5FE9
:10117000C9F7880F911D9695879597F90895E1E035
:10118000660F771F881FBB1F621773078407BA0794
:1011900020F0621B730B840BBA0BEE1F88F7E095EF
:1011A00008950E94910988F09F5798F0B92F9927C8
:1011B000B751B0F0E1F0660F771F881F991F1AF042
:1011C000BA95C9F714C0B13091F00E94AB09B1E0F3
:1011D00008950C94AB09672F782F8827B85F39F0F2
:1011E000B93FCCF3869577956795B395D9F73EF4DB
:1011F00090958095709561957F4F8F4F9F4F089583
:10120000E89409C097FB3EF49095809570956195A0
:101210007F4F8F4F9F4F9923A9F0F92F96E9BB2756
:101220009395F695879577956795B795F111F8CFD2
:10123000FAF4BB0F11F460FF1BC06F5F7F4F8F4F3D
:101240009F4F16C0882311F096E911C0772321F033
:101250009EE8872F762F05C0662371F096E8862FCB
:1012600070E060E02AF09A95660F771F881FDAF722
:10127000880F9695879597F90895990F0008550F4F
:10128000AA0BE0E8FEEF16161706E807F907C0F00C
:1012900012161306E407F50798F0621B730B840B14
:1012A000950B39F40A2661F0232B242B252B21F4EE
:1012B00008950A2609F4A140A6958FEF811D811D8E
:1012C000089597F99F6780E870E060E008959FEFC8
:1012D00080EC089500240A941616170618060906CD
:1012E000089500240A94121613061406050608959C
:1012F000092E0394000C11F4882352F0BB0F40F424
:10130000BF2B11F460FF04C06F5F7F4F8F4F9F4F63
:10131000089557FD9058440F551F59F05F3F71F0E5
:101320004795880F97FB991F61F09F3F79F087954C
:101330000895121613061406551FF2CF4695F1DFD5
:1013400008C0161617061806991FF1CF8695710565
:10135000610508940895E894BB2766277727CB0199
:1013600097F908950E943D0908F48FEF08950E94AF
:10137000CA090C9478090E946A0938F00E94710920
:1013800020F0952311F00C9461090C946709112445
:101390000C94AC090E94890970F3959FC1F3950FD5
:1013A00050E0551F629FF001729FBB27F00DB11DE9
:1013B000639FAA27F00DB11DAA1F649F6627B00D79
:1013C000A11D661F829F2227B00DA11D621F739F62
:1013D000B00DA11D621F839FA00D611D221F749F70
:1013E0003327A00D611D231F849F600D211D822FB7
:1013F000762F6A2F11249F5750409AF0F1F08823DE
:101400004AF0EE0FFF1FBB1F661F771F881F91500A
:101410005040A9F79E3F510580F00C9461090C944F
:10142000AC095F3FE4F3983ED4F3869577956795D2
:10143000B795F795E7959F5FC1F7FE2B880F911D34
:101440009695879597F90895EE0FFF1F0590F491F3
:08145000E02D0994F894FFCF90
:1014580000000000F301530180014002B1018F0137
:10146800A301000000003F0312037503E8020B0309
:04147800F802E9028B
:00000001FF
