:100000000C9458000C9480000C9480000C94800098
:100010000C9480000C9480000C9480000C94800060
:100020000C9480000C9480000C9480000C94800050
:100030000C9480000C9480000C9480000C94800040
:100040000C94CC040C9480000C949A040C947404CA
:100050000C9480000C9480000C9480000C94800020
:100060000C9416050C948000000000002500280068
:100070002B00040404040404040402020202020229
:10008000030303030303010204081020408001025C
:1000900004081020010204081020000000080002DB
:1000A0000100000304070000000000000000350606
:1000B00011241FBECFEFD8E0DEBFCDBF11E0A0E01E
:1000C000B1E0EAEFF3E102C005900D92A433B1076D
:1000D000D9F722E0A4E3B1E001C01D92AC3AB20727
:1000E000E1F710E0C8E5D0E004C02197FE010E94CE
:1000F000E609C735D107C9F70E9470060C94FB09C1
:100100000C9400002091F00181E0213208F044C0FD
:100110008091CC018111FCCF8091EF0192E090930E
:10012000CC0191E09093CB019FEF9093CA01109284
:10013000C9012093C801AFECB1E0E8EAF1E090E03A
:10014000291331C01092A7019091A701880F892B24
:100150008093A7018091A601813049F51092A601F4
:100160008091A7018093BB008091BC0083FDF8CFF4
:1001700085EC8093BC008091CC018230E1F38091CA
:10018000CA018F3FB1F08091CA018032A1F0809105
:10019000CA01803391F084E01092CE011092F001F8
:1001A0001092CD0108953D9131939F5FC9CF85EEA7
:1001B000E0CF80E0F1CF82E0EFCF83E0EDCF3F9260
:1001C0004F925F926F927F928F929F92AF92BF9267
:1001D000CF92DF92EF92FF920F931F93CF93DF9313
:1001E000CDB7DEB729970FB6F894DEBF0FBECDBFEF
:1001F0004B015C01142F20E030E0A9010E94E407CC
:10020000312C04E087FF07C0B7FAB094B7F8B09478
:100210003324339403E020E030E040E05FE3C501A5
:10022000B4010E9478070E945B086B017C011E826A
:100230001D8281E090E0A0E0B0E089839A83AB83E7
:10024000BC83E02FF0E0412E512C712C612CAD814C
:10025000BE81AE17BF0794F429813A814B815C813E
:10026000C301B2010E94A90969837A838B839C83AD
:100270008D819E8101969E838D83E9CF412C512CE7
:1002800040E8642E4FE3742E1986812F90E0B0E091
:10029000A0E08D839E83AF83B88789819A81AB81EB
:1002A000BC81C816D906EA06FB0610F19985915063
:1002B00099876D817E818F8198850E948C089B0132
:1002C000AC01C301B2010E94E9072B013C01AC0162
:1002D0009B01C501B4010E943C0920E030E040E0F0
:1002E0005FE30E9478070E945B086B017C01D5CF19
:1002F00020E030E040E85FE3C301B2010E94E40780
:1003000087FF2EC080E490E090939B0280939A0236
:1003100090939D0280939C0210929F0210929E02E5
:100320009093A1028093A0029093A3028093A202D3
:1003300029960FB6F894DEBF0FBECDBFDF91CF91E7
:100340001F910F91FF90EF90DF90CF90BF90AF90F3
:100350009F908F907F906F905F904F903F90089507
:10036000C114D104E104F104D9F48FE390E0909337
:10037000A3028093A20231107AC093E09983F9819D
:10038000F7FDD6CFF53044F4EF2FF0E0EE0FFF1F6E
:10039000E656FD4F11821082E981E150E983EFCFEB
:1003A000B4E0B983B12C412E512C712C612CE9851C
:1003B000EE2319F099249394EB11912CA980FA2D36
:1003C000F150F9838F2E84E08A15C8F00A2D10E0D1
:1003D000000F111F06561D4FC701B601A301920160
:1003E0000E94B90960507F4F979499249794DB013C
:1003F0008C91982A892D90E0F80191838083F9816E
:10040000F23071F4AA94AA94A98284E0881540F08D
:10041000E82DF0E0EE0FFF1FE656FD4F118210822F
:10042000C701B601A30192010E94B90969017A01CD
:10043000B394C114D104E104F10409F0B8CFA98543
:10044000AB1508F0B4CF332009F499CFE981AE2F72
:10045000A150A983E53008F092CFF0E0EE0FFF1F26
:10046000E656FD4F80E490E09183808388CFB2E030
:10047000B983E3E0F2CF90E0FC01E656FF4F249110
:10048000FC01EA57FF4F3491FC01EE58FF4FE49115
:10049000EE23B1F0222339F02330E9F090F421303B
:1004A00001F1223011F1F0E0EE0FFF1FE859FF4F8C
:1004B000A591B4918FB7F894EC913E2B3C938FBFEC
:1004C00008952730A9F02830C9F0243061F78091D1
:1004D00080008F7D03C0809180008F7780938000A3
:1004E000E2CF84B58F7784BDDECF84B58F7DFBCF1F
:1004F0008091B0008F778093B000D5CF8091B0000D
:100500008F7DF9CF08950895AF92BF92CF92DF9279
:10051000EF92FF920F931F93CF93DF936C017B01B8
:100520008B01040F151FEB015E01AE18BF08C01749
:10053000D10759F06991D601ED91FC910190F081BC
:10054000E02DC6010995892B79F7C501DF91CF917F
:100550001F910F91FF90EF90DF90CF90BF90AF90E1
:100560000895FC01538D448D252F30E0842F90E0B9
:10057000821B930B541710F0CF960895019708959E
:10058000FC01918D828D981761F0A28DAE0FBF2F67
:10059000B11D5D968C91928D9F5F9F73928F90E0BD
:1005A00008958FEF9FEF0895FC01918D828D98172C
:1005B00031F0828DE80FF11D858D90E008958FEF69
:1005C0009FEF0895FC01918D228D892F90E0805C32
:1005D0009F4F821B91098F739927089581EF91E0B6
:1005E0000E94E20221E0892B09F420E0822F089585
:1005F00080E090E0892B29F00E94EE0281110C949A
:1006000000000895FC01A48DA80FB92FB11DA35AB5
:10061000BF4F2C91848D90E001968F739927848F22
:10062000A689B7892C93A089B1898C918370806445
:100630008C93938D848D981306C00288F389E02DE6
:1006400080818F7D80830895EF92FF920F931F9397
:10065000CF93DF93EC0181E0888F9B8D8C8D981375
:100660001AC0E889F989808185FF15C09FB7F89481
:10067000EE89FF896083E889F989808183708064CD
:1006800080839FBF81E090E0DF91CF911F910F9118
:10069000FF90EF900895F62E0B8D10E00F5F1F4F27
:1006A0000F731127E02E8C8D8E110CC00FB607FC36
:1006B000FACFE889F989808185FFF5CFCE010E94C4
:1006C0000203F1CFEB8DEC0FFD2FF11DE35AFF4F2D
:1006D000F0829FB7F8940B8FEA89FB898081806252
:1006E000CFCFCF93DF93EC01888D8823B9F0AA890F
:1006F000BB89E889F9898C9185FD03C0808186FDDD
:100700000DC00FB607FCF7CF8C9185FFF2CF80812B
:1007100085FFEDCFCE010E940203E9CFDF91CF919B
:10072000089585ED8093BC008091BC0084FDFCCFD2
:100730001092CC01089520917401260F3327331FA6
:1007400021323105ECF42091CC01FC0190E080E0F5
:10075000243069F082E00895A09174012191AC01E8
:100760004C5A5E4FA40FB52FB11D2C9301968617DE
:1007700098F380917401680F6093740180E008958C
:1007800081E008950895E091A5018091A401E81702
:1007900030F4F0E0EC5CFE4F808190E008958FEF44
:1007A0009FEF08959091A5018091A4012FEF3FEF55
:1007B000981748F4E92FF0E0EC5CFE4F208130E020
:1007C0009F5F9093A501C90108958091A401909124
:1007D000A501891B990B0895CF92DF92EF92FF92AA
:1007E0000F931F93CF93DF937C01CB018A0120915C
:1007F000CD01222389F0EB016B01C40ED51ECC156F
:10080000DD0569F06991D701ED91FC910190F081CE
:10081000E02DC7010995F3CF642F0E949B03C80107
:10082000DF91CF911F910F91FF90EF90DF90CF90CC
:100830000895CF93DF931F92CDB7DEB769832091E0
:10084000CD012223F9F02091F001203258F021E06F
:1008500030E0FC013383228390E080E00F90DF9151
:10086000CF9108958091CE01E82FF0E0E153FE4F43
:10087000998190838F5F8093CE018093F00181E016
:1008800090E0ECCF61E0CE0101960E949B03F7CF90
:10089000CF93DF938091AA0291E09093CD01809352
:1008A000EF011092CE011092F00160E08EE892E02C
:1008B0000E941904CAE9D2E0688122968EE892E08B
:1008C0000E941904FE01329761818EE892E00E9435
:1008D000190482E0CA3AD80779F7DF91CF910C94D6
:1008E000820090E080E008951F920F920FB60F9261
:1008F00011242F933F934F935F936F937F938F9325
:100900009F93AF93BF93EF93FF9381EF91E00E948A
:100910000203FF91EF91BF91AF919F918F917F91D2
:100920006F915F914F913F912F910F900FBE0F905C
:100930001F9018951F920F920FB60F9211242F93AC
:100940008F939F93EF93FF93E0910102F091020246
:100950008081E0910702F091080282FD1BC0908126
:1009600080910A028F5F8F7320910B02821741F0F2
:10097000E0910A02F0E0EF50FE4F958F80930A025B
:10098000FF91EF919F918F912F910F900FBE0F903C
:100990001F9018958081F4CF1F920F920FB60F927F
:1009A00011242F933F938F939F93AF93BF93809185
:1009B0009C0190919D01A0919E01B0919F01309169
:1009C0009B0123E0230F2D3758F50196A11DB11D82
:1009D00020939B0180939C0190939D01A0939E0185
:1009E000B0939F018091970190919801A0919901F6
:1009F000B0919A010196A11DB11D8093970190932A
:100A00009801A0939901B0939A01BF91AF919F91E2
:100A10008F913F912F910F900FBE0F901F901895BF
:100A200026E8230F0296A11DB11DD2CF1F920F926F
:100A30000FB60F9211242F933F934F935F936F93B1
:100A40007F938F939F93AF93BF93EF93FF93809187
:100A5000B900887F803609F44AC0F0F5883209F47D
:100A6000A7C018F5803109F49BC0B8F4882309F4B5
:100A7000F9C0883009F494C0FF91EF91BF91AF9114
:100A80009F918F917F916F915F914F913F912F91A6
:100A90000F900FBE0F901F901895883109F488C0F1
:100AA000803251F78093CA0114C0803409F49DC08C
:100AB00040F48033B9F38833F9F68093CA0185ECAA
:100AC000B0C0803509F485C0883509F496C08834F3
:100AD00099F60E949103D0CF883909F48CC038F57B
:100AE000883729F050F4883611F0803729F683E0F2
:100AF0008093CC011092960157C0883809F47BC0CE
:100B0000803919F0803809F0B7CF80919601803292
:100B100008F071C0E091960181E08E0F80939601FC
:100B20008091BB00F0E0EA58FE4F80833DC0803BDF
:100B300039F0E0F4803A09F479C0883A09F09CCFA2
:100B400084E08093CC011092750110927401E091C1
:100B5000A201F091A30109958091740181110FC048
:100B600081E0809374011092540109C0803C09F423
:100B7000A6CF883C09F4A3CF883B09F07DCFE09154
:100B8000750181E08E0F80937501F0E0EC5AFE4F05
:100B900080818093BB00909175018091740129C080
:100BA0008091A7018093BB0085EC8093BC0064CF4B
:100BB0009091C9018091C801981758F5E091C90139
:100BC00081E08E0F8093C901F0E0E855FE4F8081EF
:100BD000E9CFE091C90181E08E0F8093C901809136
:100BE000BB00F0E0E855FE4F80839091C9018091F1
:100BF000C8019817C8F285E8D8CFE091C90181E013
:100C00008E0F8093C9018091BB00F0E0E855FE4F44
:100C100080838091CB0181115CCF81E08093A6011C
:100C200084EA8093BC001092CC0126CF85EC80939F
:100C3000BC001092CC0180919601803230F4E0919A
:100C40009601F0E0EA58FE4F10826091960170E044
:100C5000E091A001F091A10186E791E00995109241
:100C600096010ACF1092CA0134CFE1EFF1E013826E
:100C7000128288EE93E0A0E0B0E084839583A6839F
:100C8000B78324E131E03183208325EC30E03587E0
:100C9000248724EC30E03787268720EC30E0318B46
:100CA000208B21EC30E0338B228B22EC30E0358B33
:100CB000248B26EC30E0378B268B118E128E138E10
:100CC000148EEEE8F2E01382128284839583A68369
:100CD000B78386E291E0918380831092AB020895FE
:100CE000789484B5826084BD84B5816084BD85B507
:100CF000826085BD85B5816085BD80916E00816013
:100D000080936E00109281008091810082608093B8
:100D100081008091810081608093810080918000BA
:100D20008160809380008091B10084608093B100E5
:100D30008091B00081608093B00080917A008460DF
:100D400080937A0080917A00826080937A0080910B
:100D50007A00816080937A0080917A008068809325
:100D60007A001092C100E0910102F091020282E04B
:100D70008083E091FD01F091FE011082E091FF017E
:100D8000F09100028FEC808310920902E09105023D
:100D9000F091060286E08083E0910302F091040264
:100DA000808180618083E0910302F0910402808160
:100DB00088608083E0910302F09104028081806862
:100DC0008083E0910302F091040280818F7D808313
:100DD00080E78093AA021092A5011092A4011092BC
:100DE000CE011092F0011092CC01C1E0C093CB0172
:100DF0001092A60182E10E943B0283E10E943B0225
:100E00008091B9008E7F8093B9008091B9008D7F69
:100E10008093B90088E48093B80085E48093BC0097
:100E200082E892E09093A3018093A20183E892E08C
:100E30009093A1018093A0018091AA02C093CD015B
:100E40008093EF011092CE011092F00161E28EE8E2
:100E500092E00E9419040E9482008091AA02C0932D
:100E6000CD018093EF011092CE011092F00161E864
:100E70008EE892E00E9419040E9482008091AA02EA
:100E8000C093CD018093EF011092CE011092F0013A
:100E90006FEE8EE892E00E9419040E9482004AE000
:100EA00060E070E0CB010E94DF000E944804C0E0D7
:100EB000D0E081EF91E00E94E202892B79F081EF8E
:100EC00091E00E94C002BC01990F880B990B0E940F
:100ED0008C084AE00E94DF000E944804209749F3F2
:100EE0000E94EE02882329F30E940000E2CF5058AE
:100EF000BB27AA270E948F070C9402090E94F408BE
:100F000038F00E94FB0820F039F49F3F19F426F4D2
:100F10000C94F1080EF4E095E7FB0C94EB08E92F34
:100F20000E94130958F3BA176207730784079507DD
:100F300020F079F4A6F50C9435090EF4E0950B2E0B
:100F4000BA2FA02D0B01B90190010C01CA01A0011B
:100F50001124FF27591B99F0593F50F4503E68F176
:100F60001A16F040A22F232F342F4427585FF3CFB7
:100F7000469537952795A795F0405395C9F77EF488
:100F80001F16BA0B620B730B840BBAF09150A1F0D1
:100F9000FF0FBB1F661F771F881FC2F70EC0BA0F57
:100FA000621F731F841F48F4879577956795B795DF
:100FB000F7959E3F08F0B0CF9395880F08F09927DA
:100FC000EE0F9795879508950E94C70808F481E071
:100FD00008950E94FD070C9402090E94FB0858F036
:100FE0000E94F40840F029F45F3F29F00C94EB08CC
:100FF00051110C9436090C94F1080E94130968F3FE
:101000009923B1F3552391F3951B550BBB27AA27C1
:1010100062177307840738F09F5F5F4F220F331FFB
:10102000441FAA1FA9F335D00E2E3AF0E0E832D0C3
:1010300091505040E695001CCAF72BD0FE2F29D0C6
:10104000660F771F881FBB1F261737074807AB0798
:10105000B0E809F0BB0B802DBF01FF2793585F4F0D
:101060003AF09E3F510578F00C94EB080C94360949
:101070005F3FE4F3983ED4F3869577956795B795EF
:10108000F7959F5FC9F7880F911D9695879597F9FA
:101090000895E1E0660F771F881FBB1F6217730773
:1010A0008407BA0720F0621B730B840BBA0BEE1F88
:1010B00088F7E09508950E941B0988F09F5798F0E3
:1010C000B92F9927B751B0F0E1F0660F771F881F4D
:1010D000991F1AF0BA95C9F714C0B13091F00E9467
:1010E0003509B1E008950C943509672F782F8827CA
:1010F000B85F39F0B93FCCF3869577956795B3958E
:10110000D9F73EF490958095709561957F4F8F4FFC
:101110009F4F0895E89409C097FB3EF49095809501
:10112000709561957F4F8F4F9F4F9923A9F0F92FAD
:1011300096E9BB279395F695879577956795B7952B
:10114000F111F8CFFAF4BB0F11F460FF1BC06F5F11
:101150007F4F8F4F9F4F16C0882311F096E911C023
:10116000772321F09EE8872F762F05C0662371F044
:1011700096E8862F70E060E02AF09A95660F771F58
:10118000881FDAF7880F9695879597F90895990F34
:101190000008550FAA0BE0E8FEEF16161706E80741
:1011A000F907C0F012161306E407F50798F0621B62
:1011B000730B840B950B39F40A2661F0232B242B37
:1011C000252B21F408950A2609F4A140A6958FEF56
:1011D000811D811D089597F99F6780E870E060E0A8
:1011E00008959FEF80EC089500240A9416161706C0
:1011F00018060906089500240A9412161306140608
:1012000005060895092E0394000C11F4882352F06A
:10121000BB0F40F4BF2B11F460FF04C06F5F7F4F22
:101220008F4F9F4F089557FD9058440F551F59F009
:101230005F3F71F04795880F97FB991F61F09F3FC3
:1012400079F087950895121613061406551FF2CFEC
:101250004695F1DF08C0161617061806991FF1CF3C
:1012600086957105610508940895E894BB27662763
:101270007727CB0197F908950E944F090C94020932
:101280000E94F40838F00E94FB0820F0952311F02A
:101290000C94EB080C94F10811240C9436090E946C
:1012A000130970F3959FC1F3950F50E0551F629F8E
:1012B000F001729FBB27F00DB11D639FAA27F00DAF
:1012C000B11DAA1F649F6627B00DA11D661F829FD6
:1012D0002227B00DA11D621F739FB00DA11D621FBB
:1012E000839FA00D611D221F749F3327A00D611DD8
:1012F000231F849F600D211D822F762F6A2F1124BA
:101300009F5750409AF0F1F088234AF0EE0FFF1FEC
:10131000BB1F661F771F881F91505040A9F79E3F43
:10132000510580F00C94EB080C9436095F3FE4F310
:10133000983ED4F3869577956795B795F795E79599
:101340009F5FC1F7FE2B880F911D9695879597F9A2
:101350000895DB018F939F930E94DB09BF91AF91AA
:10136000A29F800D911DA39F900DB29F900D1124FF
:101370000895A1E21A2EAA1BBB1BFD010DC0AA1FD6
:10138000BB1FEE1FFF1FA217B307E407F50720F0EE
:10139000A21BB30BE40BF50B661F771F881F991F69
:1013A0001A9469F760957095809590959B01AC01B2
:1013B000BD01CF0108950E94EC09A59F900DB49F37
:1013C000900DA49F800D911D11240895EE0FFF1F15
:1013D0000590F491E02D0994A29FB001B39FC00144
:1013E000A39F700D811D1124911DB29F700D811D51
:0A13F0001124911D0895F894FFCF19
:1013FA003F065B4F666D7D077F6F777C395E79713B
:10140A000000000024038402B1027103E202C00258
:10141A00D402000000001904EC037104C203E503BE
:04142A00D203C30323
:00000001FF
