:100000000C945E000C9486000C9486000C94860080
:100010000C9486000C9486000C9486000C94860048
:100020000C9486000C9486000C9486000C94860038
:100030000C9486000C9486000C9486000C94860028
:100040000C94910A0C9486000C945F0A0C94390A63
:100050000C9486000C9486000C9486000C94860008
:100060000C9486000C9486000000000024002700F9
:100070002A0000000000250028002B0004040404CE
:100080000404040402020202020203030303030342
:10009000010204081020408001020408102001021F
:1000A00004081020000000080002010000030407FB
:1000B0000000000000000000DB0AFB0B11241FBE43
:1000C000CFEFD8E0DEBFCDBF22E0AEEAB1E001C0A5
:1000D0001D92A436B207E1F711E0A0E0B1E0EEE531
:1000E000F5E202C005900D92AE3AB107D9F710E0E3
:1000F000CDE5D0E004C02197FE010E940D0ECC3565
:10010000D107C9F70E94510B0C94A2120C94000065
:10011000E1EBF0E02491EDE9F0E09491E9E8F0E022
:10012000E491EE23C9F0222339F0233001F1A8F441
:10013000213019F1223029F1F0E0EE0FFF1FEE58C7
:10014000FF4FA591B4912FB7F894EC91811126C07F
:1001500090959E239C932FBF08952730A9F02830B7
:10016000C9F0243049F7209180002F7D03C02091F1
:1001700080002F7720938000DFCF24B52F7724BD18
:10018000DBCF24B52F7DFBCF2091B0002F772093BC
:10019000B000D2CF2091B0002F7DF9CF9E2BDACFC7
:1001A00008950895AF92BF92CF92DF92EF92FF929F
:1001B0000F931F93CF93DF936C017B018B01040F8F
:1001C000151FEB015E01AE18BF08C017D10759F02B
:1001D0006991D601ED91FC910190F081E02DC6016D
:1001E0000995892B79F7C501DF91CF911F910F9167
:1001F000FF90EF90DF90CF90BF90AF900895FC01FB
:10020000538D448D252F30E0842F90E0821B930B7B
:10021000541710F0CF96089501970895FC01918D21
:10022000828D981761F0A28DAE0FBF2FB11D5D9624
:100230008C91928D9F5F9F73928F90E008958FEFC6
:100240009FEF08952FB7F8948091B3019091B40176
:10025000A091B501B091B6012FBF8093BF019093DB
:10026000C001A093C101B093C20187EB91E00E944D
:100270000E0197FF26C02FB7F8948091B30190919B
:10028000B401A091B501B091B6012FBF4091BF015B
:100290005091C0016091C1017091C201841B950B06
:1002A000A60BB70B4091BB015091BC016091BD0101
:1002B0007091BE0184179507A607B707B0F28FEFBC
:1002C0009FEF0895FC01918D828D981731F0828DFA
:1002D000E80FF11D858D90E008958FEF9FEF089551
:1002E000FC01918D228D892F90E0805C9F4F821BB5
:1002F00091098F739927089587EB91E00E9470010F
:1003000021E0892B09F420E0822F089580E090E01D
:10031000892B29F00E947C0181110C940000089522
:10032000FC01A48DA80FB92FB11DA35ABF4F2C916A
:10033000848D90E001968F739927848FA689B78961
:100340002C93A089B1898C91837080648C93938D58
:10035000848D981306C00288F389E02D80818F7DFB
:1003600080830895EF92FF920F931F93CF93DF93B3
:10037000EC0181E0888F9B8D8C8D98131AC0E889E1
:10038000F989808185FF15C09FB7F894EE89FF89B0
:100390006083E889F98980818370806480839FBF4E
:1003A00081E090E0DF91CF911F910F91FF90EF904E
:1003B0000895F62E0B8D10E00F5F1F4F0F7311275E
:1003C000E02E8C8D8E110CC00FB607FCFACFE88999
:1003D000F989808185FFF5CFCE010E949001F1CF90
:1003E000EB8DEC0FFD2FF11DE35AFF4FF0829FB70D
:1003F000F8940B8FEA89FB8980818062CFCFCF93FD
:10040000DF93EC01888D8823B9F0AA89BB89E8893C
:10041000F9898C9185FD03C0808186FD0DC00FB6E2
:1004200007FCF7CF8C9185FFF2CF808185FFEDCF60
:10043000CE010E949001E9CFDF91CF9108953FB79F
:10044000F8948091AF019091B001A091B101B09169
:10045000B20126B5A89B05C02F3F19F00196A11D3A
:10046000B11D3FBFBA2FA92F982F8827BC01CD01FE
:10047000620F711D811D911D42E0660F771F881F5D
:10048000991F4A95D1F708958F929F92AF92BF928C
:10049000CF92DF92EF92FF920E941F024B015C010C
:1004A00088EEC82E83E0D82EE12CF12C0E941F028A
:1004B000681979098A099B09683E7340810591058D
:1004C000A8F321E0C21AD108E108F10888EE880EED
:1004D00083E0981EA11CB11CC114D104E104F104F5
:1004E00029F7FF90EF90DF90CF90BF90AF909F9053
:1004F0008F9008954F925F926F927F928F929F920A
:10050000AF92BF92DF92EF92FF920F931F93CF9320
:10051000DF938C01EB0188818B32D1F18D32C9F5EB
:100520002196EE24E394888190ED980F9A3010F094
:100530008E3289F560E070E0CB01FE012191A0EDE3
:100540008A2E820E39E0381508F440C06A3929E94C
:100550007207820729E1920708F04DC0AAE0B0E0D7
:100560009B01AC010E94280D912CB12CA12C2401DF
:10057000350140945094609470944616570668066E
:100580007906C8F1680D791D8A1D9B1DEF01D5CF35
:100590002196E12CC8CFF8011082118212821382B9
:1005A00014821582168217821086C801DF91CF91BE
:1005B0001F910F91FF90EF90DF90BF90AF909F90B1
:1005C0008F907F906F905F904F900895211113C08E
:1005D000F80160837183828393830E94090CF80180
:1005E00064837583868397838AE0E11001C088E085
:1005F000F8018087DACFF12CEAE08E2E912CA12C25
:10060000B12C61157105F0E88F07910540F0A50147
:1006100094010E94EB0DCA01B901F394F2CFFE01DF
:10062000299130ED320F3A3010F4F394F8CF2E3296
:10063000F1F4EF012196FE012196208150EDD52E97
:10064000D20E29E02D1598F06C3C3CEC73073CE091
:100650008307910580F7AAE0B0E09B01AC010E94FE
:10066000280D6D0D711D811D911DFA94E4CF20811F
:100670002F7DD0E0C0E0253409F04FC021812D321C
:10068000A9F53296BB24B394DF01D0E0C0E02F2D52
:100690000F2C000C330B4AE0A42EFD01DD9040ED41
:1006A0004D0D4A30A8F5AC9EA001AD9E500D112411
:1006B000CD2DDD0CDD0BE097C40FD51FAE01420F31
:1006C000531F473251054CF3BB20B9F080E090E056
:1006D000A0E0B0E8E11003C080E090E0DC01F801A8
:1006E00084839583A683B7838CE083CF2B3219F064
:1006F0003196B12CC9CF3296FCCF80E090E0A0E8D3
:10070000BFEFE110ECCF80E090E0A0E8BFE7E7CFDB
:10071000BB2019F0D195C195D109208121113BCF82
:10072000CF0DD11DF7FCDA950E94090C1C161D0691
:10073000E4F4F12CC0FF0CC024E0F29EF00111247F
:10074000E25EFE4F20813181428153810E946A0C1A
:10075000D595C795F394209769F7E1109058F80163
:100760006483758386839783BFCFD195C195D10963
:10077000F12C209791F3C0FF0CC024E0F29EF00111
:100780001124EA5FFE4F20813181428153810E9412
:100790006A0CD595C795F394ECCF80339CF08A33DF
:1007A00024F08F3524F08B3724F481E008958134D0
:1007B0004CF08B35D4F393ED980F81E09230B0F389
:1007C00080E008958B32B9F7F0CFFC01828581116A
:1007D00014C0A281B381848195812FEF3FEFA817C8
:1007E000B90730F4CD010196938382832C9130E0D8
:1007F00037FD20E0218781E0828781850895CF93AE
:10080000DF93EC01CE010E94E5038B303CF489308C
:100810004CF4882349F090E080E008C08D3011F05E
:100820008032C9F71A86EECF81E090E0DF91CF9158
:100830000895FC0184819581009799F0228133818C
:10084000468157812417350718F0158214820895C0
:10085000A9014F5F5F4F53834283820F931FFC01B7
:1008600060830895DF92EF92FF920F931F93CF93CF
:10087000DF93CDB7DEB728970FB6F894DEBF0FBE73
:10088000CDBF8C017B01DC011696ED91FC9122819C
:1008900033818481958193838283FA83E9831C82E7
:1008A0001B823E832D83821B930B98878F83C80105
:1008B0000E94E503D82EF8011286C8010E94E503C4
:1008C000D8011A961C92D816A9F1811110C081E0A6
:1008D00090E028960FB6F894DEBF0FBECDBFDF9133
:1008E000CF911F910F91FF90EF90DF9008958C357D
:1008F000D9F4C8010E94E503882349F3853719F428
:1009000084E090E0E6CFECE4F1E09081992351F0AF
:10091000891306C08181811105C082E090E0D9CFA2
:100920003296F3CFF8011286682FCE0101960E940D
:100930001904C3CF60E0CE0101960E9419048D8195
:100940009E81892B79F0E981FA818B819C812F81AD
:100950003885AC01421B530B82819381840F951F14
:10096000938382838D819E81D7018D939C93892B64
:1009700019F483E090E0ADCF90E080E0AACFFC01D5
:1009800080819181892B21F460E070E0CB01089592
:1009900060ED70E090E080E00895CF93DF93DC019C
:1009A000EB01EC81FD818A819B810896E817F907AC
:1009B00030F4F0E0E0E0CF01DF91CF910895389777
:1009C000FD83EC833097A9F31296CD91DC911397B8
:1009D000209791F0CF018C1B9D0B23E09595879577
:1009E0002A95E1F78D831396FC93EE931297158267
:1009F000148217821682DFCF1196FC93EE93F3CF09
:100A0000CF93DF93FC0101900020E9F73197AF010C
:100A1000481B590BBC0187EB91E00E94D200EC010E
:100A200042E050E067E571E087EB91E00E94D20080
:100A30008C0F9D1FDF91CF9108950F931F93CF933C
:100A4000DF93EC0188819981009759F02A813B81DD
:100A50002617370730F081E0DF91CF911F910F917A
:100A600008958B016F5F7F4F0E94380F009759F0F8
:100A7000998388831B830A832C813D81232B59F71B
:100A8000FC011082E8CF80E0E7CF0F931F93CF9354
:100A9000DF938B01EC012097E1F06E817F8160177D
:100AA0007107B9F00115110541F06115710529F0C3
:100AB000C8010E94FE0F882361F08D81882339F0E0
:100AC00028E08202C0011124C80FD91FE4CFD0E072
:100AD000C0E0CE01DF91CF911F910F9108958F92C9
:100AE0009F92AF92BF92CF92DF92EF92FF920F93BD
:100AF0001F93CF93DF93CDB7DEB7CD54D1090FB697
:100B0000F894DEBF0FBECDBF8C016B010E94FF03C6
:100B10002E969FAF8EAF2E97CE01845B9F4F0E9483
:100B2000BF04672B09F098C280FD96C2C8010E94DD
:100B3000E503873209F4F6C114F5823209F4F2C1F3
:100B4000C8010E94E503F82EFE0131964F01E12C09
:100B50005F018F2D0E94CD03882309F404C2FFE3B7
:100B6000EF1609F400C2D8011A961C92E394F4011E
:100B7000F1924F01C8010E94E503F82EEACF8B35B0
:100B800009F45EC08B37E1F6D60114968C91149768
:100B90008078806214968C93149711961C921E9202
:100BA00013961C921E921297F8018085882309F4EF
:100BB000B6C1C8010E94E5038B3709F05BC0D801BC
:100BC0001A961C92C8010E94FF032C969FAF8EAF0D
:100BD0002C97CE01865B9F4F0E94BF04672B09F0C4
:100BE0001FC180FD1DC1C8010E94E5038D3709F4B6
:100BF0005AC0C8010E94E503873209F496C08232C8
:100C000009F493C0D8011696ED91FC9122813381AD
:100C10008481958193838283FA83E9831C821B827A
:100C20003E832D83821B930B98878F83C8010E947C
:100C3000E503F82E81110FC1EE24E394F12C7CC062
:100C4000D60114968C9114978078806414968C93B6
:100C5000149711961C921E9213961C921E92129734
:100C6000F8018085882309F45AC1C8010E94E50370
:100C70008B3519F082E0E82E50C1D8011A961C92EB
:100C8000C8010E94FF039A838983CE0101960E94C6
:100C9000BF04672B09F046C080FD44C0C8010E9414
:100CA000E5038D3591F4F8011286E12C36C180FD03
:100CB00039C0C8010E94E5038D35A9F3C8010E941F
:100CC000E5038C32B9F6F8011286D8016D917C915A
:100CD000C6010E94CD04BC01892B09F41CC1F80196
:100CE000908591509087C8010E946F059A838983EF
:100CF000D80118968C9118978F5F18968C93CE0117
:100D000001960E94BF04672B69F480FD0BC0C801E7
:100D10000E94FF039A838983CE0101960E94BF043B
:100D2000672B29F2E980FA8081C0BE016F5B7F4F9B
:100D3000C8010E9432047C012B96EFAE2B972C96B3
:100D4000FFAE2C97CE01865B9F4F0E94BF04672B9E
:100D500009F06CC080FD6AC023966EAD7FAD23970D
:100D6000D6018D919C910E9445057C01892BA1F4AF
:100D7000F80160817181C6010E94CD04FC01892BBC
:100D800009F4C9C023962EAD3FAD239784818068B6
:100D90008483378326837F01C8010E94FF032C963A
:100DA0009FAF8EAF2C97CE01865B9F4F0E94BF04F2
:100DB000672BB1F580FD34C0C8010E94E5038A337A
:100DC00009F058CFD8011A961C921A9718968C9150
:100DD0001897815018968C93B701C8010E946F052F
:100DE0002C969FAF8EAF2C97F80180858F5F808700
:100DF000CE01865B9F4F0E94BF04672B89F480FD64
:100E00000FC0C8010E94FF032C969FAF8EAF2C9796
:100E1000CE01865B9F4F0E94BF04672B09F456C02A
:100E20002B96EFAC2B972C96FFAC2C97C701C35B8E
:100E3000DF4F0FB6F894DEBF0FBECDBFDF91CF916D
:100E40001F910F91FF90EF90DF90CF90BF90AF90E8
:100E50009F908F9008950E94CD0342E0E42E882356
:100E600009F4ECCEF80112866F2DCE0101960E9496
:100E70001904C8010E94E503F82E0E94CD038111D8
:100E8000F1CF60E0CE0101960E9419048D819E8110
:100E9000892B79F0E981FA818B819C812F813885BA
:100EA000AC01421B530B82819381840F951F938366
:100EB00082838D819E8123969FAF8EAF2397E12CF5
:100EC000892B09F0BBCE33E0E32EB8CE80FDA8CF4E
:100ED000C8010E94E5038D3721F4D8011A961C92AF
:100EE000E4CEC8010E94E5038C3209F0C3CEF801BC
:100EF0001286C8010E94FF032C969FAF8EAF2C97DD
:100F0000CE01865B9F4F0E94BF04672B09F088CFFC
:100F100080FF6FCE85CF23E0E22EF12C87CF95E0C6
:100F2000E92EFBCFBE016F5B7F4FC8010E943204E8
:100F30009A838983CE0101960E94BF04672B09F032
:100F4000F1CE80FDEFCE23962EAD3FAD2397D60197
:100F500014968C9114978078856014968C931497CE
:100F60002D933C93A2CEF501EE0DF11D10828981E7
:100F70008437B9F4D60114968C91149780788660E2
:100F800014968C9381E090E0A0E0B0E0F6018083BD
:100F90009183A283B383F12CF4E0EF121CC080E0B4
:100FA0001AC0863689F4D60114968C9114978078ED
:100FB000866014968C93F60110821182128213823D
:100FC00081E0F12CF5E0E9CF8E3639F481E0F12CA7
:100FD00044E0E41621F3E82E29CFB501CE018F5B62
:100FE0009F4F0E947A0225964CAD5DAD6EAD7FADF0
:100FF00025972A968FAD2A978A3061F08C30C1F000
:10100000883009F037CED60114968C9114978078E9
:10101000886006C0D60114968C91149780788A60F7
:1010200014968C93F60140835183628373833DCE83
:1010300029964CAD5DAD6EAD7FAD2997D601149666
:101040008C91149780788C6014968C93F601408371
:1010500051836283738329CE2D968FAD2D972E9663
:101060009FAD2E97E4CECF92DF92EF92FF920F9337
:101070001F93CF93DF93CDB7DEB7CA51D2400FB6DF
:10108000F894DEBF0FBECDBF87EB91E00E947001E8
:101090008E010F5F1F4F892B09F478C08AE591E01C
:1010A0000E9400051A8219821C821B821E821D82E8
:1010B00070E060E0C8010E941D0529813A8181111C
:1010C00036C02115310519F0C9010E94AF0E1A82F0
:1010D00019821E821D821C821B820E94220197FDA2
:1010E0002EC08E36910559F1C25FDD4F8883CE50F8
:1010F000D240C15FDD4F1882CF50D240ED80FE80DC
:101100008FEFE81AF80AB701C8010E941D0588236D
:1011100021F329813A818D819E81BE01625F7D4FDD
:10112000820F931F0E940710FE82ED82D6CF1E828F
:101130001D8266E571E0C9010E940710CECF809143
:10114000540290915502009709F4BDC069817A81DB
:101150006115710509F4B5C04091560250915702CE
:101160002D813E814217530708F4ABC00E9407103F
:101170008D819E8190935902809358021E821D8218
:1011800089819A81009711F00E94AF0ECE010E96D0
:101190009A8389839C838B838EE092E08C0F9D1FC2
:1011A0009E838D8398878F838D8580788D8720910E
:1011B0005402309155028091580290915902820F49
:1011C000931FC25FDD4F19830883CE50D240C05FAA
:1011D000DD4F39832883C051D240CE5EDD4F9983E5
:1011E0008883C251D240CC5EDD4F19830883C4513D
:1011F000D2408AE0CA5EDD4F8883C651D240C85EC5
:10120000DD4F1882C851D240BE01675F7F4FCE01CB
:10121000825F9D4F0E946F05C75EDD4F9983888373
:10122000C951D240CE01875E9D4F0E94BF04672BFB
:10123000C9F480FD17C0C95EDD4F8881C751D24017
:10124000882381F08D85982F907661F48F77845074
:10125000823040F082E090E0C75EDD4F9983888362
:10126000C951D240CE01875E9D4F0E94BF04672BBB
:1012700009F078C080FD76C08D8585FF5DC06BE686
:1012800071E089859A850E944505FC01892B09F446
:1012900053C084818F778A3009F451C08C3051F16A
:1012A000883009F049C080819181181619060CF028
:1012B00043C031E020E0019709F430E0832F922F02
:1012C00039C00E94AF0E89819A8190935502809314
:1012D00054028B819C8190935702809356028D819A
:1012E0009E8190935902809358021A8219821C821F
:1012F0001B8244CF20E030E040E85FE360817181F1
:10130000828193810E94790D6B017C0120E030E0A5
:10131000A9010E94040C87FD0FC001E010E020E04D
:1013200030E0A901C701B6010E94E60D18160CF0C5
:1013300000E0C801892BD9F08EE991E015C08081C9
:101340009181019697FD0BC031E020E0892B09F4D3
:1013500030E0832F922F919581959109EBCF8FEFFC
:101360009FEFF9CF80E791E00E9400055CC084E820
:1013700091E00E9400058D8585FD04C060E070E06D
:10138000CB0141C062E971E089859A850E944505DB
:10139000FC01892B99F394819F77963031F1F0F419
:1013A000943060F360817181CE01825F9D4F0E9415
:1013B0007A02C25FDD4F688179818A819B81CE503C
:1013C000D240CA5EDD4F2881C651D2402A30D9F1C1
:1013D0002C3009F440C0283089F60BC09A3061F0F7
:1013E0009C3009F441C0983049F660817181828156
:1013F00093810E94090C07C0608171818281938171
:101400000E94090C90589F938F937F936F9389E963
:1014100091E09F938F930E940E100F900F900F906A
:101420000F900F900F90C65EDD4F0FB6F894DEBFA1
:101430000FBECDBFDF91CF911F910F91FF90EF9025
:10144000DF90CF90089590958095709561957F4F2E
:101450008F4F9F4FCECFCE5EDD4F688179818A81DD
:101460009B81C251D240CFCF6081718182819381B3
:10147000CACF1F920F920FB60F9211242F933F9352
:101480004F935F936F937F938F939F93AF93BF938C
:10149000EF93FF9387EB91E00E949001FF91EF9112
:1014A000BF91AF919F918F917F916F915F914F917C
:1014B0003F912F910F900FBE0F901F9018951F9284
:1014C0000F920FB60F9211242F938F939F93EF9348
:1014D000FF93E091C701F091C8018081E091CD01B7
:1014E000F091CE0182FD1BC090818091D0018F5F71
:1014F0008F732091D101821741F0E091D001F0E08B
:10150000E954FE4F958F8093D001FF91EF919F9109
:101510008F912F910F900FBE0F901F901895808183
:10152000F4CF1F920F920FB60F9211242F933F9377
:101530008F939F93AF93BF938091B3019091B40128
:10154000A091B501B091B6013091AE0123E0230F17
:101550002D3758F50196A11DB11D2093AE01809342
:10156000B3019093B401A093B501B093B6018091FB
:10157000AF019091B001A091B101B091B20101967B
:10158000A11DB11D8093AF019093B001A093B10153
:10159000B093B201BF91AF919F918F913F912F91E5
:1015A0000F900FBE0F901F90189526E8230F0296FC
:1015B000A11DB11DD2CF1092BA011092B90188EECF
:1015C00093E0A0E0B0E08093BB019093BC01A093B6
:1015D000BD01B093BE018AE391E09093B80180937E
:1015E000B70185EC90E09093C4018093C30184EC33
:1015F00090E09093C6018093C50180EC90E09093B9
:10160000C8018093C70181EC90E09093CA01809358
:10161000C90182EC90E09093CC018093CB0186ECE1
:1016200090E09093CE018093CD011092D001109262
:10163000D1011092D2011092D30110925502109252
:1016400054021092570210925602109259021092B0
:10165000580270E060E084E592E00E941D05209150
:10166000540230915502811113C02115310519F032
:10167000C9010E94AF0E10925502109254021092AE
:101680005902109258021092570210925602089571
:10169000109259021092580266E571E0C9010C944B
:1016A0000710789484B5826084BD84B5816084BD60
:1016B00085B5826085BD85B5816085BD80916E00F0
:1016C000816080936E001092810080918100826021
:1016D000809381008091810081608093810080915E
:1016E00080008160809380008091B100846080934D
:1016F000B1008091B00081608093B00080917A0049
:10170000846080937A0080917A00826080937A006E
:1017100080917A00816080937A0080917A0080685D
:1017200080937A001092C100E091C701F091C80146
:1017300082E08083E091C301F091C4011082E091C6
:10174000C501F091C6018FEC80831092CF01E0912A
:10175000CB01F091CC0186E08083E091C901F0914A
:10176000CA01808180618083E091C901F091CA0142
:10177000808188608083E091C901F091CA018081F5
:1017800080688083E091C901F091CA0180818F7DDA
:101790008083EDE9F0E02491E9E8F0E0849188238A
:1017A00099F090E0880F991FFC01E859FF4FA5912F
:1017B000B491FC01EE58FF4F859194918FB7F89446
:1017C000EC91E22BEC938FBF81E00E9488000E9495
:1017D000440280E00E9488000E944402C0E0D0E001
:1017E0000E9433082097E1F30E947C018823C1F313
:1017F0000E940000F5CF809154029091550200970D
:1018000011F00C94AF0E08950E94460C08F481E08C
:101810000895E89409C097FB3EF4909580957095E3
:1018200061957F4F8F4F9F4F9923A9F0F92F96E92C
:10183000BB279395F695879577956795B795F111A1
:10184000F8CFFAF4BB0F11F460FF1BC06F5F7F4F3E
:101850008F4F9F4F16C0882311F096E911C0772350
:1018600021F09EE8872F762F05C0662371F096E859
:10187000862F70E060E02AF09A95660F771F881F28
:10188000DAF7880F9695879597F90895990F0008CC
:10189000550FAA0BE0E8FEEF16161706E807F90742
:1018A000C0F012161306E407F50798F0621B730BDD
:1018B000840B950B39F40A2661F0232B242B252B5E
:1018C00021F408950A2609F4A140A6958FEF811D01
:1018D000811D08950E947D0C0C94EE0C0E94E00C7A
:1018E00038F00E94E70C20F0952311F00C94D70CEF
:1018F0000C94DD0C11240C94220D0E94FF0C70F34B
:10190000959FC1F3950F50E0551F629FF001729FA4
:10191000BB27F00DB11D639FAA27F00DB11DAA1FB3
:10192000649F6627B00DA11D661F829F2227B00D00
:10193000A11D621F739FB00DA11D621F839FA00D8B
:10194000611D221F749F3327A00D611D231F849FDB
:10195000600D211D822F762F6A2F11249F57504032
:101960009AF0F1F088234AF0EE0FFF1FBB1F661FAD
:10197000771F881F91505040A9F79E3F510580F076
:101980000C94D70C0C94220D5F3FE4F3983ED4F3F3
:10199000869577956795B795F795E7959F5FC1F71A
:1019A000FE2B880F911D9695879597F9089597F9C5
:1019B0009F6780E870E060E008959FEF80EC0895F5
:1019C00000240A941616170618060906089500241E
:1019D0000A9412161306140605060895092E039498
:1019E000000C11F4882352F0BB0F40F4BF2B11F40C
:1019F00060FF04C06F5F7F4F8F4F9F4F089557FD6B
:101A00009058440F551F59F05F3F71F04795880F6C
:101A100097FB991F61F09F3F79F087950895121603
:101A200013061406551FF2CF4695F1DF08C01616AF
:101A300017061806991FF1CF869571056105089460
:101A40000895E894BB2766277727CB0197F9089577
:101A50000E946A0DA59F900DB49F900DA49F800DCC
:101A6000911D112408952F923F924F925F926F9291
:101A70007F928F929F92AF92BF92CF92DF92EF921E
:101A8000FF920F931F93CF93DF93CDB7DEB7CA1B9F
:101A9000DB0B0FB6F894DEBF0FBECDBF09942A88CA
:101AA000398848885F846E847D848C849B84AA8472
:101AB000B984C884DF80EE80FD800C811B81AA81FF
:101AC000B981CE0FD11D0FB6F894DEBF0FBECDBFCA
:101AD000ED010895A29FB001B39FC001A39F700DB7
:101AE000811D1124911DB29F700D811D1124911D26
:101AF00008955058BB27AA270E94910D0C94EE0C14
:101B00000E94E00C38F00E94E70C20F039F49F3F6F
:101B100019F426F40C94DD0C0EF4E095E7FB0C941C
:101B2000D70CE92F0E94FF0C58F3BA17620773070E
:101B30008407950720F079F4A6F50C94210D0EF496
:101B4000E0950B2EBA2FA02D0B01B90190010C01CD
:101B5000CA01A0011124FF27591B99F0593F50F4E5
:101B6000503E68F11A16F040A22F232F342F44273D
:101B7000585FF3CF469537952795A795F040539535
:101B8000C9F77EF41F16BA0B620B730B840BBAF005
:101B90009150A1F0FF0FBB1F661F771F881FC2F770
:101BA0000EC0BA0F621F731F841F48F48795779584
:101BB0006795B795F7959E3F08F0B0CF9395880F3E
:101BC00008F09927EE0F9795879508950E94460C87
:101BD00008F48FEF0895A1E21A2EAA1BBB1BFD018A
:101BE0000DC0AA1FBB1FEE1FFF1FA217B307E407FC
:101BF000F50720F0A21BB30BE40BF50B661F771F54
:101C0000881F991F1A9469F7609570958095909533
:101C10009B01AC01BD01CF010895EE0FFF1F0590A0
:101C2000F491E02D09940F931F93CF93DF938230AB
:101C3000910510F482E090E0E0915C02F0915D0289
:101C400030E020E0B0E0A0E0309799F421153105B4
:101C500009F44AC0281B390B24303105D8F58A8194
:101C60009B816115710589F1FB0193838283FE01DC
:101C700011C0408151810281138148175907E0F05A
:101C80004817590799F4109761F012960C93129720
:101C900013961C933296CF01DF91CF911F910F9134
:101CA000089500935C0210935D02F4CF2115310575
:101CB00051F04217530738F0A901DB019A01BD0129
:101CC000DF01F801C1CFEF01F9CF90935D0280935E
:101CD0005C02CDCFFE01E20FF31F8193919322505E
:101CE000310939832883D7CF20915A0230915B0282
:101CF000232B41F4209102013091030130935B02C8
:101D000020935A02209100013091010121153105E3
:101D100041F42DB73EB74091040150910501241BB9
:101D2000350BE0915A02F0915B02E217F307A0F441
:101D30002E1B3F0B2817390778F0AC014E5F5F4F21
:101D40002417350748F04E0F5F1F50935B024093F6
:101D50005A02819391939FCFF0E0E0E09CCFCF9324
:101D6000DF930097E9F0FC01329713821282A09171
:101D70005C02B0915D02ED0130E020E01097A1F42B
:101D800020813181820F931F20915A0230915B0292
:101D90002817390709F061C0F0935B02E0935A02FB
:101DA000DF91CF910895EA01CE17DF07E8F54A8168
:101DB0005B819E0141155105B1F7E901FB83EA837F
:101DC00049915991C40FD51FEC17FD0761F480812B
:101DD00091810296840F951FE901998388838281FE
:101DE00093819B838A83F0E0E0E012968D919C9131
:101DF00013970097B9F52D913C911197CD0102965B
:101E0000820F931F20915A0230915B0228173907E5
:101E100039F6309751F510925D0210925C02B09342
:101E20005B02A0935A02BCCFD383C283408151810D
:101E3000840F951FC817D90761F44E5F5F4F8881E3
:101E40009981480F591F518340838A819B819383D5
:101E500082832115310509F0B0CFF0935D02E09344
:101E60005C029ECFFD01DC01C0CF13821282D7CF6E
:101E7000B0E0A0E0EEE3FFE00C94350D8C0100979C
:101E800051F4CB010E94130E8C01C801CDB7DEB70F
:101E9000E0E10C94510DFC01E60FF71F9C0122506C
:101EA0003109E217F30708F49DC0D901CD91DC9107
:101EB0001197C617D70798F0C530D10530F3CE017A
:101EC00004978617970708F3C61BD70B2297C19371
:101ED000D1936D937C93CF010E94AF0ED6CF5B015F
:101EE000AC1ABD0A4C018C0E9D1EA0915C02B091F3
:101EF0005D02512C412CF12CE12C109731F5809191
:101F00005A0290915B028815990509F05CC046164B
:101F1000570608F058C08091000190910101009788
:101F200041F48DB79EB74091040150910501841B87
:101F3000950BE817F90708F055C0F0935B02E093A2
:101F40005A02F90171836083A0CF8D919C91119702
:101F500012966C90129713967C901397A815B9055A
:101F600059F56C0142E0C40ED11CCA14DB0420F107
:101F7000AC014A195B09DA011296159780F062826A
:101F8000738251834083D9016D937C93E114F104F2
:101F900071F0D7011396FC93EE93129776CF2296A9
:101FA0008C0F9D1FF90191838083F301EFCFF09394
:101FB0005D02E0935C0269CF4816590608F42C01D3
:101FC0007D01D3019ACFCB010E94130E7C010097B3
:101FD00049F0AE01B8010E94F50FC8010E94AF0E92
:101FE000870153CF10E000E050CFFB01DC0102C0BD
:101FF00001900D9241505040D8F70895FB01DC014B
:102000008D91019080190110D9F3990B0895FB016E
:10201000DC0101900D920020E1F70895B0E0A0E00E
:10202000E4E1F0E10C94430DAE014B5F5F4FFA0128
:1020300061917191AF0180916002909161020E9463
:102040002410E2E00C945F0DABE0B0E0EAE2F0E1D6
:102050000C94330D7C013B018A01FC01178216822E
:10206000838181FFC8C1CE0101965C01F701938194
:10207000F30193FD859193FF81913F01882309F43A
:1020800053C1853239F493FD859193FF81913F01CE
:10209000853229F4B70190E00E941412E7CF912C09
:1020A000212C312CFFE1F31538F08B3211F190F433
:1020B000803209F1833229F137FC3CC020ED280F32
:1020C0002A3050F536FE20C08AE0989E200D11245B
:1020D000922E06C08D3291F0803371F7689430F8FB
:1020E000F30193FD859193FF81913F018111DACF37
:1020F00021C0689431F8689432F8F2CF689433F8CC
:10210000EFCF689434F8ECCFEAE02E9E200D112436
:10211000222E689435F8E4CF8E3229F436FC04C1BF
:10212000689436F8DDCF8C3619F4689437F8D8CF38
:102130008836B1F2982F9F7D95549330E0F0833626
:10214000A1F18337C1F1833509F063C02801F2E0C2
:102150004F0E511CF801C080D180692D70E036FC13
:1021600002C06FEF7FEFC6010E94FE114C01689420
:1021700037F882010AC00C5F1F4FFFE3F983882400
:102180008394912C6501E89437F833FE2DC0522CCE
:102190008114910471F5552009F468CFB70180E2EC
:1021A00090E00E9414125A94F6CFF801808189833E
:1021B0000E5F1F4FE4CF2801F2E04F0E511CF801D3
:1021C000C080D180692D70E036FC02C06FEF7FEFD8
:1021D000C6010E9409124C018201D5CFB70180E2ED
:1021E00090E00E9414122A942814190409F0B0F700
:1021F000CECFF60137FC859137FE81916F01B70193
:1022000090E00E94141251105A94F1E08F1A910834
:10221000BFCF843619F0893609F077C0F80137FE50
:102220006BC060817181828193810C5F1F4FF32DA0
:10223000FF763F2E97FF09C0909580957095619528
:102240007F4F8F4F9F4F689437F82AE030E0A50109
:102250000E944412C82ECA188C2C432C36FE0CC087
:10226000E89440F8C91440F434FE05C032FC03C0C1
:10227000F32DFE7E4F2E892C44FE95C0FE01EC0D01
:10228000F11D8081803309F087C0242D297E422EE4
:10229000842D8870582E43FC95C040FE8FC09C2C26
:1022A000821418F42C0C922C981844FE91C0B7019B
:1022B00080E390E00E94141242FE09C088E790E09B
:1022C00041FE02C088E590E0B7010E941412C914D3
:1022D00008F48AC0CA94D12C9FEFC91AD90ACA0C33
:1022E000DB1CF60182916F01B70190E00E9414128D
:1022F000AC14BD04B1F74FCF60817181072E000C83
:10230000880B990B0E5F1F4F92CFD32CE894D4F813
:102310002AE030E0853739F1232D297FD22E8F3600
:1023200001F148F48835A9F0F701868197812B9651
:10233000E2E10C944F0D803749F08837A9F7D4FEBD
:1023400002C06894D2F820E130E00DC06894D4F85F
:10235000F6CF34FE03C0822F8660D82E20E132E013
:1023600002C028E030E0F801D7FE0FC06081718123
:10237000828193810C5F1F4FA5010E944412C82ED9
:10238000CA183D2CE89437F867CF6081718190E0DE
:1023900080E00E5F1F4FF0CF42FC02C0839478CFE5
:1023A0008394839475CF842D867809F471CFF6CF0A
:1023B000B70180E290E00E94141283948214C0F36B
:1023C000512C73CF522C5818821408F46ECFF8CFCA
:1023D000842D867809F47BCF8BE241FE80E247FCB6
:1023E0008DE2B70190E071CFB70180E390E00E94E9
:1023F00014129A946CCF8FEF9FEF99CFFC01059048
:10240000615070400110D8F7809590958E0F9F1FF6
:102410000895FC016150704001900110D8F780953B
:1024200090958E0F9F1F08950F931F93CF93DF9367
:10243000182F092FEB018B8181FD09C01FEF0FEFD2
:10244000812F902FDF91CF911F910F91089582FFDF
:1024500014C02E813F818C819D81281739073CF45F
:10246000E881F981CF0101969983888310838E8159
:102470009F8101969F838E83E3CFE885F985812F25
:102480000995892BA1F3DACFFA01AA27283051F157
:10249000203181F1E8946F936E7F6E5F7F4F8F4F95
:1024A0009F4FAF4FB1E03ED0B4E03CD0670F781FF4
:1024B000891F9A1FA11D680F791F8A1F911DA11DD9
:1024C0006A0F711D811D911DA11D20D009F4689412
:1024D0003F912AE0269F11243019305D3193DEF6BA
:1024E000CF010895462F4770405D4193B3E00FD070
:1024F000C9F7F6CF462F4F70405D4A3318F0495D5B
:1025000031FD4052419302D0A9F7EACFB4E0A6953D
:102510009795879577956795BA95C9F7009761055F
:10252000710508959B01AC010A2E069457954795B5
:1025300037952795BA95C9F7620F731F841F951FAA
:10254000A01D089510E0CDE5D0E004C0FE010E947A
:0E2550000D0E2196CE35D107C9F7F894FFCFB6
:10255E00000064028000CDCCCC3D0AD7233C17B7D7
:10256E00D13877CC2B329595E6241FB14F0A000057
:10257E0020410000C84200401C4620BCBE4CCA1B75
:10258E000E5AAEC59D7400000000B201D200FF00CD
:10259E00FF0170010E01620122225C5C6208660C72
:1025AE006E0A720D7409000D0A0053657269616C32
:1025BE0020417661696C61626C65007465737400AC
:1025CE004661696C656420746F2072656164206673
:1025DE00696C6500596F7520737563636565646515
:1025EE00640041786973203000252E3266004272F5
:0E25FE00756820796F75206661696C656400F0
:107E0000112484B714BE81FFF0D085E080938100F7
:107E100082E08093C00088E18093C10086E0809377
:107E2000C20080E18093C4008EE0C9D0259A86E02C
:107E300020E33CEF91E0309385002093840096BBD3
:107E4000B09BFECF1D9AA8958150A9F7CC24DD24C4
:107E500088248394B5E0AB2EA1E19A2EF3E0BF2EE7
:107E6000A2D0813461F49FD0082FAFD0023811F036
:107E7000013811F484E001C083E08DD089C08234E0
:107E800011F484E103C0853419F485E0A6D080C0E4
:107E9000853579F488D0E82EFF2485D0082F10E0AE
:107EA000102F00270E291F29000F111F8ED06801E7
:107EB0006FC0863521F484E090D080E0DECF843638
:107EC00009F040C070D06FD0082F6DD080E0C81688
:107ED00080E7D80618F4F601B7BEE895C0E0D1E017
:107EE00062D089930C17E1F7F0E0CF16F0E7DF06D8
:107EF00018F0F601B7BEE89568D007B600FCFDCFD4
:107F0000A601A0E0B1E02C9130E011968C91119780
:107F100090E0982F8827822B932B1296FA010C0160
:107F200087BEE89511244E5F5F4FF1E0A038BF0790
:107F300051F7F601A7BEE89507B600FCFDCF97BE46
:107F4000E89526C08437B1F42ED02DD0F82E2BD052
:107F50003CD0F601EF2C8F010F5F1F4F84911BD097
:107F6000EA94F801C1F70894C11CD11CFA94CF0C13
:107F7000D11C0EC0853739F428D08EE10CD085E9AC
:107F80000AD08FE07ACF813511F488E018D01DD067
:107F900080E101D065CF982F8091C00085FFFCCF94
:107FA0009093C60008958091C00087FFFCCF809118
:107FB000C00084FD01C0A8958091C6000895E0E648
:107FC000F0E098E1908380830895EDDF803219F02E
:107FD00088E0F5DFFFCF84E1DECF1F93182FE3DFCA
:107FE0001150E9F7F2DF1F91089580E0E8DFEE27F6
:047FF000FF270994CA
:027FFE00040479
:0400000300007E007B
:00000001FF
