:100000000C945E000C9486000C9486000C94860080
:100010000C9486000C9486000C9486000C94860048
:100020000C9486000C9486000C9486000C94860038
:100030000C9486000C9486000C9486000C94860028
:100040000C94ED090C9486000C94BB090C94950952
:100050000C9486000C9486000C9486000C94860008
:100060000C9486000C9486000000000024002700F9
:100070002A0000000000250028002B0004040404CE
:100080000404040402020202020203030303030342
:10009000010204081020408001020408102001021F
:1000A00004081020000000080002010000030407FB
:1000B0000000000000000000370A5B0B11241FBE87
:1000C000CFEFD8E0DEBFCDBF22E0A8EAB1E001C0AB
:1000D0001D92A835B207E1F711E0A0E0B1E0E6EF2C
:1000E000FEE102C005900D92A83AB107D9F710E0E1
:1000F000CDE5D0E004C02197FE010E946D0DCC3506
:10010000D107C9F70E94AD0A0C946E0F0C94000041
:10011000E1EBF0E02491EDE9F0E09491E9E8F0E022
:10012000E491EE23C9F0222339F0233001F1A8F441
:10013000213019F1223029F1F0E0EE0FFF1FEE58C7
:10014000FF4FA591B4912FB7F894EC91811126C07F
:1001500090959E239C932FBF08952730A9F02830B7
:10016000C9F0243049F7209180002F7D03C02091F1
:1001700080002F7720938000DFCF24B52F7724BD18
:10018000DBCF24B52F7DFBCF2091B0002F772093BC
:10019000B000D2CF2091B0002F7DF9CF9E2BDACFC7
:1001A00008950895AF92BF92CF92DF92EF92FF929F
:1001B0000F931F93CF93DF936C017B018B01040F8F
:1001C000151FEB015E01AE18BF08C017D10759F02B
:1001D0006991D601ED91FC910190F081E02DC6016D
:1001E0000995892B79F7C501DF91CF911F910F9167
:1001F000FF90EF90DF90CF90BF90AF900895FC01FB
:10020000538D448D252F30E0842F90E0821B930B7B
:10021000541710F0CF96089501970895FC01918D21
:10022000828D981761F0A28DAE0FBF2FB11D5D9624
:100230008C91928D9F5F9F73928F90E008958FEFC6
:100240009FEF08952FB7F8948091AD019091AE0182
:10025000A091AF01B091B0012FBF8093B9019093ED
:10026000BA01A093BB01B093BC0181EB91E00E9465
:100270000E0197FF26C02FB7F8948091AD019091A1
:10028000AE01A091AF01B091B0012FBF4091B90173
:100290005091BA016091BB017091BC01841B950B18
:1002A000A60BB70B4091B5015091B6016091B70113
:1002B0007091B80184179507A607B707B0F28FEFC2
:1002C0009FEF0895FC01918D828D981731F0828DFA
:1002D000E80FF11D858D90E008958FEF9FEF089551
:1002E000FC01918D228D892F90E0805C9F4F821BB5
:1002F00091098F739927089581EB91E00E94700115
:1003000021E0892B09F420E0822F089580E090E01D
:10031000892B29F00E947C0181110C940000089522
:10032000FC01A48DA80FB92FB11DA35ABF4F2C916A
:10033000848D90E001968F739927848FA689B78961
:100340002C93A089B1898C91837080648C93938D58
:10035000848D981306C00288F389E02D80818F7DFB
:1003600080830895EF92FF920F931F93CF93DF93B3
:10037000EC0181E0888F9B8D8C8D98131AC0E889E1
:10038000F989808185FF15C09FB7F894EE89FF89B0
:100390006083E889F98980818370806480839FBF4E
:1003A00081E090E0DF91CF911F910F91FF90EF904E
:1003B0000895F62E0B8D10E00F5F1F4F0F7311275E
:1003C000E02E8C8D8E110CC00FB607FCFACFE88999
:1003D000F989808185FFF5CFCE010E949001F1CF90
:1003E000EB8DEC0FFD2FF11DE35AFF4FF0829FB70D
:1003F000F8940B8FEA89FB8980818062CFCFCF93FD
:10040000DF93EC01888D8823B9F0AA89BB89E8893C
:10041000F9898C9185FD03C0808186FD0DC00FB6E2
:1004200007FCF7CF8C9185FFF2CF808185FFEDCF60
:10043000CE010E949001E9CFDF91CF9108953FB79F
:10044000F8948091A9019091AA01A091AB01B0917B
:10045000AC0126B5A89B05C02F3F19F00196A11D40
:10046000B11D3FBFBA2FA92F982F8827BC01CD01FE
:10047000620F711D811D911D42E0660F771F881F5D
:10048000991F4A95D1F708958F929F92AF92BF928C
:10049000CF92DF92EF92FF920E941F024B015C010C
:1004A00088EEC82E83E0D82EE12CF12C0E941F028A
:1004B000681979098A099B09683E7340810591058D
:1004C000A8F321E0C21AD108E108F10888EE880EED
:1004D00083E0981EA11CB11CC114D104E104F104F5
:1004E00029F7FF90EF90DF90CF90BF90AF909F9053
:1004F0008F90089580339CF08A3324F08F3524F058
:100500008B3724F481E0089581344CF08B35D4F39B
:1005100093ED980F81E09230B0F380E008958B3234
:10052000B9F7F0CFFC018285811114C0A281B3819B
:10053000848195812FEF3FEFA817B90730F4CD01E3
:100540000196938382832C9130E037FD20E0218750
:1005500081E0828781850895CF93DF93EC01CE01FE
:100560000E9492028B303CF489304CF4882349F08D
:1005700090E080E008C08D3011F08032C9F71A8613
:10058000EECF81E090E0DF91CF910895FC0184816E
:100590009581009799F022813381468157812417F4
:1005A000350718F0158214820895A9014F5F5F4F37
:1005B00053834283820F931FFC0160830895DF926F
:1005C000EF92FF920F931F93CF93DF93CDB7DEB7D8
:1005D00028970FB6F894DEBF0FBECDBF8C017B010C
:1005E000DC011696ED91FC91228133818481958105
:1005F00093838283FA83E9831C821B823E832D834B
:10060000821B930B98878F83C8010E949202D82E79
:10061000F8011286C8010E949202D8011A961C9213
:10062000D816A9F1811110C081E090E028960FB68C
:10063000F894DEBF0FBECDBFDF91CF911F910F9118
:10064000FF90EF90DF9008958C35D9F4C8010E9497
:100650009202882349F3853719F484E090E0E6CFCD
:10066000ECE4F1E09081992351F0891306C0818177
:10067000811105C082E090E0D9CF3296F3CFF80126
:100680001286682FCE0101960E94C602C3CF60E099
:10069000CE0101960E94C6028D819E81892B79F040
:1006A000E981FA818B819C812F813885AC01421BC5
:1006B000530B82819381840F951F938382838D8155
:1006C0009E81D7018D939C93892B19F483E090E050
:1006D000ADCF90E080E0AACFFC0180819181892B91
:1006E00021F460E070E0CB01089560ED70E090E0EF
:1006F00080E00895CF93DF93DC01EB01EC81FD8175
:100700008A819B810896E817F90730F4F0E0E0E071
:10071000CF01DF91CF9108953897FD83EC83309717
:10072000A9F31296CD91DC911397209791F0CF0108
:100730008C1B9D0B23E0959587952A95E1F78D837A
:100740001396FC93EE9312971582148217821682E9
:10075000DFCF1196FC93EE93F3CFCF93DF93FC01A1
:1007600001900020E9F73197AF01481B590BBC01FC
:1007700081EB91E00E94D200EC0142E050E067E59D
:1007800071E081EB91E00E94D2008C0F9D1FDF9100
:10079000CF9108950F931F93CF93DF93EC0188813E
:1007A0009981009759F02A813B812617370730F04D
:1007B00081E0DF91CF911F910F9108958B016F5FC1
:1007C0007F4F0E94980E009759F0998388831B836E
:1007D0000A832C813D81232B59F7FC011082E8CF3D
:1007E00080E0E7CF0F931F93CF93DF938B01EC0152
:1007F0002097E1F06E817F8160177107B9F00115D4
:10080000110541F06115710529F0C8010E945E0FC4
:10081000882361F08D81882339F028E08202C001AD
:100820001124C80FD91FE4CFD0E0C0E0CE01DF9182
:10083000CF911F910F9108956F927F928F929F9207
:10084000AF92BF92CF92DF92EF92FF920F931F93DE
:10085000CF93DF93CDB7DEB7C654D1090FB6F89466
:10086000DEBF0FBECDBF8C016B010E94AC0227968C
:100870009FAF8EAF2797CE018B5B9F4F0E946C037B
:10088000672B09F095C33C0121E06222772480FDAB
:100890008FC3C8010E949202873209F4F6C114F591
:1008A000823209F4F2C1C8010E949202A82EFE0110
:1008B00031964F01B12C7F018A2D0E947A02882344
:1008C00009F404C2FFE3BF1609F400C2D8011A9666
:1008D0001C92B394F401A1924F01C8010E949202AC
:1008E000A82EEACF8B3509F45DC08B37E1F6D6012F
:1008F00014968C9114978078806214968C93149738
:1009000011961C921E9213961C921E921297F80139
:100910008085882309F4B6C1C8010E9492028B37F2
:1009200009F05AC0D8011A961C92C8010E94AC0264
:1009300025969FAF8EAF2597CE018D5B9F4F0E946E
:100940006C03672B09F01EC180FD1CC1C8010E9409
:1009500092028D3709F459C0C8010E949202873271
:1009600009F495C0823209F492C0D8011696ED912F
:10097000FC91228133818481958193838283FA83E0
:10098000E9831C821B823E832D83821B930B9887F5
:100990008F83C8010E949202F82E811110C1EE24AB
:1009A000E39445C1D60114968C91149780788064A5
:1009B00014968C93149711961C921E9213961C9267
:1009C0001E921297F8018085882309F45BC1C80143
:1009D0000E9492028B3519F082E0E82E51C1D801B5
:1009E0001A961C92C8010E94AC029A838983CE0198
:1009F00001960E946C03672B09F046C080FD44C03D
:100A0000C8010E9492028D3591F4F8011286E12C02
:100A100037C180FD39C0C8010E9492028D35A9F30B
:100A2000C8010E9492028C32B9F6F8011286D801F0
:100A30006D917C91C6010E947A03BC01892B09F457
:100A40001DC1F801908591509087C8010E941C0437
:100A50009A838983D80118968C9118978F5F18967E
:100A60008C93CE0101960E946C03672B69F480FD84
:100A70000BC0C8010E94AC029A838983CE01019603
:100A80000E946C03672B29F2E980FA8081C0BE01C5
:100A90006F5B7F4FC8010E94DF027C012496EFAE9E
:100AA00024972596FFAE2597CE018D5B9F4F0E9420
:100AB0006C03672B09F06CC080FD6AC023966EAD95
:100AC0007FAD2397D6018D919C910E94F2037C010A
:100AD000892BA1F4F80160817181C6010E947A031B
:100AE000FC01892B09F4CAC023962EAD3FAD239794
:100AF000848180688483378326837F01C8010E94B4
:100B0000AC0225969FAF8EAF2597CE018D5B9F4F90
:100B10000E946C03672BB1F580FD34C0C8010E94B0
:100B200092028A3309F058CFD8011A961C921A976C
:100B300018968C911897815018968C93B701C8011C
:100B40000E941C0425969FAF8EAF2597F8018085E3
:100B50008F5F8087CE018D5B9F4F0E946C03672B58
:100B600089F480FD0FC0C8010E94AC0225969FAF9A
:100B70008EAF2597CE018D5B9F4F0E946C03672B34
:100B800009F457C02496EFAC24972596FFAC25971F
:100B9000C701CA5BDF4F0FB6F894DEBF0FBECDBFF3
:100BA000DF91CF911F910F91FF90EF90DF90CF9049
:100BB000BF90AF909F908F907F906F9008950E940C
:100BC0007A02B2E0EB2E882391F1F80112866F2DA4
:100BD000CE0101960E94C602C8010E949202F82E20
:100BE0000E947A028111F1CF60E0CE0101960E944D
:100BF000C6028D819E81892B79F0E981FA818B81F2
:100C00009C812F813885AC01421B530B82819381DB
:100C1000840F951F938382838D819E8123969FAF3E
:100C20008EAF2397E12C892B11F483E0E82EF12C71
:100C300035CF80FDA7CFC8010E9492028D3721F4E5
:100C4000D8011A961C92E3CEC8010E9492028C32FF
:100C500009F0C2CEF8011286C8010E94AC022596A6
:100C60009FAF8EAF2597CE018D5B9F4F0E946C0387
:100C7000672B09F087CF80FF6FCE84CFA3E0EA2EE9
:100C8000F12C86CFF5E0EF2EFBCFBE016F5B7F4FDF
:100C9000C8010E94DF029A838983CE0101960E94D7
:100CA0006C03672B09F0F0CE80FDEECE23962EADBF
:100CB0003FAD2397D60114968C9114978078856068
:100CC00014968C9314972D933C93A1CEF701EB0DC2
:100CD000F11D108289818437B9F4D60114968C9164
:100CE00014978078866014968C9381E090E0A0E061
:100CF000B0E0F60180839183A283B383F12CF4E00A
:100D0000BF121CC080E01AC0863689F4D601149642
:100D10008C9114978078866014968C93F6011082DB
:100D200011821282138281E0F12CF5E0E9CF8E3638
:100D300039F481E0F12C24E0B21621F3E82E28CF1B
:100D40008B32D9F110E08D3231F48A8111E07E01CD
:100D500032E0E30EF11C90ED980F9A3018F08E32CD
:100D600009F03ACE60E070E0CB01F701219100ED8F
:100D7000020F0A3048F56A3959E97507850759E1C4
:100D80009507A8F5AAE0B0E09B01AC010E94880C91
:100D9000802E912CB12CA12CA50194012095309589
:100DA00040955095261737074807590700F1680DF9
:100DB000791D8A1D9B1D7F01D8CF8A8110E07E019D
:100DC00042E0E40EF11CC7CF211111C0D6011496E8
:100DD0002C91112309F4F3C020782A60D6011496CF
:100DE0002C93F601608371838283938310CE00E09D
:100DF000EAE08E2E912CA12CB12C61157105B0E882
:100E00008B07910540F0A50194010E944B0DCA018A
:100E1000B9010F5FF2CFD701F70121917F0130EDCA
:100E2000320F3A3010F40F5FF6CF2E32F9F4FD0195
:100E30003196DF0131962C9140EDF42EF20E59E0FF
:100E4000B52EBF1498F06C3C2CEC72072CE0820796
:100E5000910578F7AAE0B0E09B01AC010E94880CF4
:100E60006F0D711D811D911D0150E3CF2C912F7DC0
:100E7000253409F05EC011962C9111972D3209F09E
:100E800041C0129621E0FD01402F002E000C550BB1
:100E90003AE0F32EDF0131910F2EF0EDEF2EF02D21
:100EA000E30E0F2EF9E0BF2EF02DBE14E8F1F69CF4
:100EB000D001F79CB00D1124632E330F770830E377
:100EC000631A71086A0E7B1ED301A40FB51F979792
:100ED0000CF32223F1F060E070E080E090E8111163
:100EE00003C060E070E0CB01D60114962C911497FA
:100EF00020782C6014962C93F60160837183828392
:100F0000938385CD2B3219F0119620E0BCCF129639
:100F1000FCCF60E070E080E89FEF1111E5CF60E06A
:100F200070E080E89FE7E0CF222319F0719461948C
:100F300071082C91211150CD600E711C07FD7A941F
:100F40000E94690B16141704D4F400E060FE0CC074
:100F500044E0049FF0011124E25EFE4F20813181C4
:100F6000428153810E94CA0B759467940F5F61148C
:100F7000710461F7112309F4B7CF9058B5CF71947C
:100F80006194710800E061147104A1F360FE0CC06B
:100F900054E0059FF0011124EA5FFE4F208131816A
:100FA000428153810E94CA0B759467940F5FEBCF07
:100FB00026968FAD269727969FAD2797EACD207866
:100FC00028600CCFCF92DF92EF92FF920F931F9386
:100FD000CF93DF93CDB7DEB7CA51D2400FB6F894A6
:100FE000DEBF0FBECDBF81EB91E00E9470018E018C
:100FF0000F5F1F4F892B09F478C08AE591E00E94AA
:10100000AD031A8219821C821B821E821D8270E02F
:1010100060E0C8010E94CA0329813A81811136C06B
:101020002115310519F0C9010E940F0E1A8219828B
:101030001E821D821C821B820E94220197FD2EC0EF
:101040008E36910559F1C25FDD4F8883CE50D24074
:10105000C15FDD4F1882CF50D240ED80FE808FEF10
:10106000E81AF80AB701C8010E94CA03882321F3CD
:1010700029813A818D819E81BE01625F7D4F820F01
:10108000931F0E94670FFE82ED82D6CF1E821D82C3
:1010900066E571E0C9010E94670FCECF80914E02D4
:1010A00090914F02009709F4DDC069817A81611542
:1010B000710509F4D5C040915002509151022D8123
:1010C0003E814217530708F4CBC00E94670F8D8101
:1010D0009E8190935302809352021E821D828981C9
:1010E0009A81009711F00E940F0ECE010E969A83FE
:1010F00089839C838B838EE092E08C0F9D1F9E835F
:101100008D8398878F838D8580788D8720914E027F
:1011100030914F028091520290915302820F931F9F
:10112000C25FDD4F19830883CE50D240C05FDD4FD0
:1011300039832883C051D240CE5EDD4F99838883A6
:10114000C251D240CC5EDD4F19830883C451D240D6
:101150008AE0CA5EDD4F8883C651D240C85EDD4F4B
:101160001882C851D240BE01675F7F4FCE01825FB7
:101170009D4F0E941C04C75EDD4F99838883C9512F
:10118000D240CE01875E9D4F0E946C03672BC9F44D
:1011900080FD17C0C95EDD4F8881C751D2408823CA
:1011A00081F08D85982F907661F48F77845082300E
:1011B00040F082E090E0C75EDD4F99838883C9519B
:1011C000D240C75EDD4F88819981C951D240C25F4C
:1011D000DD4F99838883CE50D240CE01825F9D4FF0
:1011E0000E946C03672B11F480FF04C08BE691E032
:1011F0000E94AD038D8585FF64C06FE771E089852E
:101200009A850E94F203FC01892B09F45AC084815B
:101210008F778A3009F458C08C30D9F1883009F0C2
:1012200050C060817181828193810E94690B6B0142
:101230007C0129E23CE54FE05FE30E94640B87FDFF
:1012400040C001E010E029E23CE54FE05FE3C70168
:10125000B6010E94460D18160CF000E0C8014FC000
:101260000E940F0E89819A8190934F0280934E02C3
:101270008B819C8190935102809350028D819E813D
:1012800090935302809352021A8219821C821B820D
:1012900024CF29E23CE54FE05FE3608171818281E8
:1012A00093810E94D90C6B017C0120E030E0A90100
:1012B0000E94640B01E010E020E030E0A90187FF0C
:1012C000C6CF82E991E01FC06081718182819381E4
:1012D0000E94690B29E23CE54FE05FE30E94DA0CD3
:1012E00001E010E020E030E0A9010E94460D181650
:1012F00014F010E000E088279927801B910B892BC0
:1013000001F784E891E00E94AD03C65EDD4F0FB6A1
:10131000F894DEBF0FBECDBFDF91CF911F910F912B
:10132000FF90EF90DF90CF9008951F920F920FB62D
:101330000F9211242F933F934F935F936F937F935B
:101340008F939F93AF93BF93EF93FF9381EB91E0C4
:101350000E949001FF91EF91BF91AF919F918F916A
:101360007F916F915F914F913F912F910F900FBEA1
:101370000F901F9018951F920F920FB60F92112485
:101380002F938F939F93EF93FF93E091C101F0917F
:10139000C2018081E091C701F091C80182FD1BC0AC
:1013A00090818091CA018F5F8F732091CB0182174A
:1013B00041F0E091CA01F0E0EF54FE4F958F809329
:1013C000CA01FF91EF919F918F912F910F900FBEC6
:1013D0000F901F9018958081F4CF1F920F920FB637
:1013E0000F9211242F933F938F939F93AF93BF93AB
:1013F0008091AD019091AE01A091AF01B091B0018B
:101400003091A80123E0230F2D3758F50196A11D37
:10141000B11D2093A8018093AD019093AE01A093DC
:10142000AF01B093B0018091A9019091AA01A09160
:10143000AB01B091AC010196A11DB11D8093A90132
:101440009093AA01A093AB01B093AC01BF91AF916F
:101450009F918F913F912F910F900FBE0F901F90F2
:10146000189526E8230F0296A11DB11DD2CF109228
:10147000B4011092B30188EE93E0A0E0B0E0809355
:10148000B5019093B601A093B701B093B8018AE378
:1014900091E09093B2018093B10185EC90E090933C
:1014A000BE018093BD0184EC90E09093C0018093D5
:1014B000BF0180EC90E09093C2018093C10181EC68
:1014C00090E09093C4018093C30182EC90E09093EC
:1014D000C6018093C50186EC90E09093C80180938B
:1014E000C7011092CA011092CB011092CC01109248
:1014F000CD0110924F0210924E02109251021092A2
:101500005002109253021092520270E060E08EE49A
:1015100092E00E94CA0320914E0230914F02811145
:1015200013C02115310519F0C9010E940F0E109248
:101530004F0210924E0210925302109252021092D9
:1015400051021092500208951092530210925202CA
:1015500066E571E0C9010C94670F789484B58260E8
:1015600084BD84B5816084BD85B5826085BD85B547
:10157000816085BD80916E00816080936E001092C5
:101580008100809181008260809381008091810040
:1015900081608093810080918000816080938000D1
:1015A0008091B10084608093B1008091B00081602F
:1015B0008093B00080917A00846080937A0080915B
:1015C0007A00826080937A0080917A0081608093B3
:1015D0007A0080917A00806880937A001092C1002E
:1015E000E091C101F091C20182E08083E091BD01F0
:1015F000F091BE011082E091BF01F091C0018FEC2B
:1016000080831092C901E091C501F091C60186E086
:101610008083E091C301F091C40180818061808367
:10162000E091C301F091C401808188608083E091E2
:10163000C301F091C401808180688083E091C3017F
:10164000F091C40180818F7D8083EDE9F0E02491E9
:10165000E9E8F0E08491882399F090E0880F991FE1
:10166000FC01E859FF4FA591B491FC01EE58FF4FE2
:10167000859194918FB7F894EC91E22BEC938FBF06
:1016800081E00E9488000E94440280E00E9488005D
:101690000E94440282EA91E00E94AD03C0E0D0E0E3
:1016A0000E94E2072097E1F30E947C018823C1F3A6
:1016B0000E940000F5CF80914E0290914F0200975A
:1016C00011F00C940F0E08950E94A60B08F481E00F
:1016D0000895E89409C097FB3EF490958095709525
:1016E00061957F4F8F4F9F4F9923A9F0F92F96E96E
:1016F000BB279395F695879577956795B795F111E3
:10170000F8CFFAF4BB0F11F460FF1BC06F5F7F4F7F
:101710008F4F9F4F16C0882311F096E911C0772391
:1017200021F09EE8872F762F05C0662371F096E89A
:10173000862F70E060E02AF09A95660F771F881F69
:10174000DAF7880F9695879597F90895990F00080D
:10175000550FAA0BE0E8FEEF16161706E807F90783
:10176000C0F012161306E407F50798F0621B730B1E
:10177000840B950B39F40A2661F0232B242B252B9F
:1017800021F408950A2609F4A140A6958FEF811D42
:10179000811D08950E94DD0B0C944E0C0E94400C9C
:1017A00038F00E94470C20F0952311F00C94370C70
:1017B0000C943D0C11240C94820C0E945F0C70F36D
:1017C000959FC1F3950F50E0551F629FF001729FE6
:1017D000BB27F00DB11D639FAA27F00DB11DAA1FF5
:1017E000649F6627B00DA11D661F829F2227B00D42
:1017F000A11D621F739FB00DA11D621F839FA00DCD
:10180000611D221F749F3327A00D611D231F849F1C
:10181000600D211D822F762F6A2F11249F57504073
:101820009AF0F1F088234AF0EE0FFF1FBB1F661FEE
:10183000771F881F91505040A9F79E3F510580F0B7
:101840000C94370C0C94820C5F3FE4F3983ED4F375
:10185000869577956795B795F795E7959F5FC1F75B
:10186000FE2B880F911D9695879597F9089597F906
:101870009F6780E870E060E008959FEF80EC089536
:1018800000240A941616170618060906089500245F
:101890000A9412161306140605060895092E0394D9
:1018A000000C11F4882352F0BB0F40F4BF2B11F44D
:1018B00060FF04C06F5F7F4F8F4F9F4F089557FDAC
:1018C0009058440F551F59F05F3F71F04795880FAE
:1018D00097FB991F61F09F3F79F087950895121645
:1018E00013061406551FF2CF4695F1DF08C01616F1
:1018F00017061806991FF1CF8695710561050894A2
:101900000895E894BB2766277727CB0197F90895B8
:101910000E94CA0CA59F900DB49F900DA49F800DAE
:10192000911D112408952F923F924F925F926F92D2
:101930007F928F929F92AF92BF92CF92DF92EF925F
:10194000FF920F931F93CF93DF93CDB7DEB7CA1BE0
:10195000DB0B0FB6F894DEBF0FBECDBF09942A880B
:10196000398848885F846E847D848C849B84AA84B3
:10197000B984C884DF80EE80FD800C811B81AA8140
:10198000B981CE0FD11D0FB6F894DEBF0FBECDBF0B
:10199000ED010895A29FB001B39FC001A39F700DF8
:1019A000811D1124911DB29F700D811D1124911D67
:1019B00008955058BB27AA270E94F10C0C944E0C96
:1019C0000E94400C38F00E94470C20F039F49F3FF1
:1019D00019F426F40C943D0C0EF4E095E7FB0C94FE
:1019E000370CE92F0E945F0C58F3BA176207730790
:1019F0008407950720F079F4A6F50C94810C0EF479
:101A0000E0950B2EBA2FA02D0B01B90190010C010E
:101A1000CA01A0011124FF27591B99F0593F50F426
:101A2000503E68F11A16F040A22F232F342F44277E
:101A3000585FF3CF469537952795A795F040539576
:101A4000C9F77EF41F16BA0B620B730B840BBAF046
:101A50009150A1F0FF0FBB1F661F771F881FC2F7B1
:101A60000EC0BA0F621F731F841F48F487957795C5
:101A70006795B795F7959E3F08F0B0CF9395880F7F
:101A800008F09927EE0F9795879508950E94A60B69
:101A900008F48FEF0895A1E21A2EAA1BBB1BFD01CB
:101AA0000DC0AA1FBB1FEE1FFF1FA217B307E4073D
:101AB000F50720F0A21BB30BE40BF50B661F771F95
:101AC000881F991F1A9469F7609570958095909575
:101AD0009B01AC01BD01CF010895EE0FFF1F0590E2
:101AE000F491E02D09940F931F93CF93DF938230ED
:101AF000910510F482E090E0E0915602F0915702D7
:101B000030E020E0B0E0A0E0309799F421153105F5
:101B100009F44AC0281B390B24303105D8F58A81D5
:101B20009B816115710589F1FB0193838283FE011D
:101B300011C0408151810281138148175907E0F09B
:101B40004817590799F4109761F012960C93129761
:101B500013961C933296CF01DF91CF911F910F9175
:101B600008950093560210935702F4CF21153105C2
:101B700051F04217530738F0A901DB019A01BD016A
:101B8000DF01F801C1CFEF01F9CF909357028093A5
:101B90005602CDCFFE01E20FF31F819391932250A5
:101BA000310939832883D7CF2091540230915502CF
:101BB000232B41F42091020130910301309355020F
:101BC000209354022091000130910101211531052B
:101BD00041F42DB73EB74091040150910501241BFB
:101BE000350BE0915402F0915502E217F307A0F48F
:101BF0002E1B3F0B2817390778F0AC014E5F5F4F63
:101C00002417350748F04E0F5F1F5093550240933D
:101C10005402819391939FCFF0E0E0E09CCFCF936B
:101C2000DF930097E9F0FC01329713821282A091B2
:101C30005602B0915702ED0130E020E01097A1F478
:101C400020813181820F931F2091540230915502DF
:101C50002817390709F061C0F0935502E093540248
:101C6000DF91CF910895EA01CE17DF07E8F54A81A9
:101C70005B819E0141155105B1F7E901FB83EA83C0
:101C800049915991C40FD51FEC17FD0761F480816C
:101C900091810296840F951FE9019983888382813F
:101CA00093819B838A83F0E0E0E012968D919C9172
:101CB00013970097B9F52D913C911197CD0102969C
:101CC000820F931F20915402309155022817390733
:101CD00039F6309751F51092570210925602B09390
:101CE0005502A0935402BCCFD383C283408151815B
:101CF000840F951FC817D90761F44E5F5F4F888125
:101D00009981480F591F518340838A819B81938316
:101D100082832115310509F0B0CFF0935702E0938B
:101D200056029ECFFD01DC01C0CF13821282D7CFB5
:101D3000B0E0A0E0EEE9FEE00C94950C8C01009779
:101D400051F4CB010E94730D8C01C801CDB7DEB7F1
:101D5000E0E10C94B10CFC01E60FF71F9C0122504E
:101D60003109E217F30708F49DC0D901CD91DC9148
:101D70001197C617D70798F0C530D10530F3CE01BB
:101D800004978617970708F3C61BD70B2297C193B2
:101D9000D1936D937C93CF010E940F0ED6CF5B0140
:101DA000AC1ABD0A4C018C0E9D1EA0915602B0913A
:101DB0005702512C412CF12CE12C109731F58091D8
:101DC0005402909155028815990509F05CC0461699
:101DD000570608F058C080910001909101010097CA
:101DE00041F48DB79EB74091040150910501841BC9
:101DF000950BE817F90708F055C0F0935502E093EA
:101E00005402F90171836083A0CF8D919C91119749
:101E100012966C90129713967C901397A815B9059B
:101E200059F56C0142E0C40ED11CCA14DB0420F148
:101E3000AC014A195B09DA011296159780F06282AB
:101E4000738251834083D9016D937C93E114F10433
:101E500071F0D7011396FC93EE93129776CF2296EA
:101E60008C0F9D1FF90191838083F301EFCFF093D5
:101E70005702E093560269CF4816590608F42C0120
:101E80007D01D3019ACFCB010E94730D7C01009795
:101E900049F0AE01B8010E94550FC8010E940F0E13
:101EA000870153CF10E000E050CFFB01DC0102C0FE
:101EB00001900D9241505040D8F70895FB01DC018C
:101EC0008D91019080190110D9F3990B0895FB01B0
:101ED000DC0101900D920020E1F7089510E0CDE5BE
:101EE000D0E004C0FE010E946D0D2196CE35D107D1
:061EF000C9F7F894FFCFD2
:101EF600000058028000CDCCCC3D0AD7233C17B752
:101F0600D13877CC2B329595E6241FB14F0A0000C5
:101F160020410000C84200401C4620BCBE4CCA1BE3
:101F26000E5AAEC59D7400000000B201D200FF003B
:101F3600FF0170010E01620122225C5C6208660CE0
:101F46006E0A720D7409000D0A0053657269616CA0
:101F560020417661696C61626C65004661696C65F9
:101F66006420746F20726561642066696C65004A3E
:101F76006F793100596F75207375636365656465A4
:101F860064004272756820796F75206661696C65B8
:081F960064007465737400001F
:107E0000112484B714BE81FFF0D085E080938100F7
:107E100082E08093C00088E18093C10086E0809377
:107E2000C20080E18093C4008EE0C9D0259A86E02C
:107E300020E33CEF91E0309385002093840096BBD3
:107E4000B09BFECF1D9AA8958150A9F7CC24DD24C4
:107E500088248394B5E0AB2EA1E19A2EF3E0BF2EE7
:107E6000A2D0813461F49FD0082FAFD0023811F036
:107E7000013811F484E001C083E08DD089C08234E0
:107E800011F484E103C0853419F485E0A6D080C0E4
:107E9000853579F488D0E82EFF2485D0082F10E0AE
:107EA000102F00270E291F29000F111F8ED06801E7
:107EB0006FC0863521F484E090D080E0DECF843638
:107EC00009F040C070D06FD0082F6DD080E0C81688
:107ED00080E7D80618F4F601B7BEE895C0E0D1E017
:107EE00062D089930C17E1F7F0E0CF16F0E7DF06D8
:107EF00018F0F601B7BEE89568D007B600FCFDCFD4
:107F0000A601A0E0B1E02C9130E011968C91119780
:107F100090E0982F8827822B932B1296FA010C0160
:107F200087BEE89511244E5F5F4FF1E0A038BF0790
:107F300051F7F601A7BEE89507B600FCFDCF97BE46
:107F4000E89526C08437B1F42ED02DD0F82E2BD052
:107F50003CD0F601EF2C8F010F5F1F4F84911BD097
:107F6000EA94F801C1F70894C11CD11CFA94CF0C13
:107F7000D11C0EC0853739F428D08EE10CD085E9AC
:107F80000AD08FE07ACF813511F488E018D01DD067
:107F900080E101D065CF982F8091C00085FFFCCF94
:107FA0009093C60008958091C00087FFFCCF809118
:107FB000C00084FD01C0A8958091C6000895E0E648
:107FC000F0E098E1908380830895EDDF803219F02E
:107FD00088E0F5DFFFCF84E1DECF1F93182FE3DFCA
:107FE0001150E9F7F2DF1F91089580E0E8DFEE27F6
:047FF000FF270994CA
:027FFE00040479
:0400000300007E007B
:00000001FF
